{
  "_format": "hh-sol-artifact-1",
  "contractName": "Lottery",
  "sourceName": "contracts/Lottery.sol",
  "abi": [
    {
      "inputs": [],
      "stateMutability": "nonpayable",
      "type": "constructor"
    },
    {
      "anonymous": false,
      "inputs": [
        {
          "indexed": true,
          "internalType": "address",
          "name": "player",
          "type": "address"
        },
        {
          "indexed": true,
          "internalType": "uint256",
          "name": "round",
          "type": "uint256"
        },
        {
          "indexed": false,
          "internalType": "uint256",
          "name": "count",
          "type": "uint256"
        }
      ],
      "name": "PlayerJoined",
      "type": "event"
    },
    {
      "anonymous": false,
      "inputs": [
        {
          "indexed": true,
          "internalType": "address",
          "name": "winner",
          "type": "address"
        },
        {
          "indexed": true,
          "internalType": "uint256",
          "name": "round",
          "type": "uint256"
        },
        {
          "indexed": false,
          "internalType": "uint256",
          "name": "prize",
          "type": "uint256"
        }
      ],
      "name": "WinnerChosen",
      "type": "event"
    },
    {
      "inputs": [],
      "name": "currentRound",
      "outputs": [
        {
          "internalType": "uint256",
          "name": "",
          "type": "uint256"
        }
      ],
      "stateMutability": "view",
      "type": "function"
    },
    {
      "inputs": [],
      "name": "enter",
      "outputs": [],
      "stateMutability": "payable",
      "type": "function"
    },
    {
      "inputs": [],
      "name": "entryFee",
      "outputs": [
        {
          "internalType": "uint256",
          "name": "",
          "type": "uint256"
        }
      ],
      "stateMutability": "view",
      "type": "function"
    },
    {
      "inputs": [],
      "name": "getPlayers",
      "outputs": [
        {
          "internalType": "address[]",
          "name": "",
          "type": "address[]"
        }
      ],
      "stateMutability": "view",
      "type": "function"
    },
    {
      "inputs": [
        {
          "internalType": "address",
          "name": "",
          "type": "address"
        }
      ],
      "name": "hasEnteredCurrentRound",
      "outputs": [
        {
          "internalType": "bool",
          "name": "",
          "type": "bool"
        }
      ],
      "stateMutability": "view",
      "type": "function"
    },
    {
      "inputs": [],
      "name": "lastWinner",
      "outputs": [
        {
          "internalType": "address",
          "name": "",
          "type": "address"
        }
      ],
      "stateMutability": "view",
      "type": "function"
    },
    {
      "inputs": [
        {
          "internalType": "uint256",
          "name": "",
          "type": "uint256"
        }
      ],
      "name": "players",
      "outputs": [
        {
          "internalType": "address",
          "name": "",
          "type": "address"
        }
      ],
      "stateMutability": "view",
      "type": "function"
    },
    {
      "inputs": [],
      "name": "playersPerRound",
      "outputs": [
        {
          "internalType": "uint256",
          "name": "",
          "type": "uint256"
        }
      ],
      "stateMutability": "view",
      "type": "function"
    }
  ],
  "bytecode": "0x6080604052348015600f57600080fd5b506001600381905550610e2c806100276000396000f3fe60806040526004361061007b5760003560e01c80639b46301e1161004e5780639b46301e1461013e578063e97dcb6214610169578063f71d96cb14610173578063fe188184146101b05761007b565b8063072ea61c146100805780636c6b570b146100ab5780638a19c8bc146100e85780638b5b9ccc14610113575b600080fd5b34801561008c57600080fd5b506100956101db565b6040516100a2919061085b565b60405180910390f35b3480156100b757600080fd5b506100d260048036038101906100cd91906108d9565b6101e6565b6040516100df9190610921565b60405180910390f35b3480156100f457600080fd5b506100fd610206565b60405161010a919061085b565b60405180910390f35b34801561011f57600080fd5b5061012861020c565b60405161013591906109fa565b60405180910390f35b34801561014a57600080fd5b5061015361029a565b604051610160919061085b565b60405180910390f35b61017161029f565b005b34801561017f57600080fd5b5061019a60048036038101906101959190610a48565b61049d565b6040516101a79190610a84565b60405180910390f35b3480156101bc57600080fd5b506101c56104dc565b6040516101d29190610a84565b60405180910390f35b662386f26fc1000081565b60016020528060005260406000206000915054906101000a900460ff1681565b60035481565b6060600080548060200260200160405190810160405280929190818152602001828054801561029057602002820191906000526020600020905b8160009054906101000a900473ffffffffffffffffffffffffffffffffffffffff1673ffffffffffffffffffffffffffffffffffffffff1681526020019060010190808311610246575b5050505050905090565b600a81565b662386f26fc1000034146102e8576040517f08c379a00000000000000000000000000000000000000000000000000000000081526004016102df90610afc565b60405180910390fd5b600160003373ffffffffffffffffffffffffffffffffffffffff1673ffffffffffffffffffffffffffffffffffffffff16815260200190815260200160002060009054906101000a900460ff1615610375576040517f08c379a000000000000000000000000000000000000000000000000000000000815260040161036c90610b68565b60405180910390fd5b6000339080600181540180825580915050600190039060005260206000200160009091909190916101000a81548173ffffffffffffffffffffffffffffffffffffffff021916908373ffffffffffffffffffffffffffffffffffffffff16021790555060018060003373ffffffffffffffffffffffffffffffffffffffff1673ffffffffffffffffffffffffffffffffffffffff16815260200190815260200160002060006101000a81548160ff0219169083151502179055506003543373ffffffffffffffffffffffffffffffffffffffff167fc9b3932fab18f6ac6d50cac9682ed0c164ce31d2505f3571323a0cf5902dd68c60008054905060405161047d919061085b565b60405180910390a3600a6000805490500361049b5761049a610502565b5b565b600081815481106104ad57600080fd5b906000526020600020016000915054906101000a900473ffffffffffffffffffffffffffffffffffffffff1681565b600260009054906101000a900473ffffffffffffffffffffffffffffffffffffffff1681565b600a6000805490501461054a576040517f08c379a000000000000000000000000000000000000000000000000000000000815260040161054190610bd4565b60405180910390fd5b60004790506000808054905061055e6107ca565b6105689190610c23565b9050600080828154811061057f5761057e610c54565b5b9060005260206000200160009054906101000a900473ffffffffffffffffffffffffffffffffffffffff16905080600260006101000a81548173ffffffffffffffffffffffffffffffffffffffff021916908373ffffffffffffffffffffffffffffffffffffffff1602179055506003548173ffffffffffffffffffffffffffffffffffffffff167f583f2b104ddadb04015734001b634e73a2cd12f3beccb23ad14d2df0ab279dcf85604051610636919061085b565b60405180910390a360008173ffffffffffffffffffffffffffffffffffffffff168460405161066490610cb4565b60006040518083038185875af1925050503d80600081146106a1576040519150601f19603f3d011682016040523d82523d6000602084013e6106a6565b606091505b50509050806106ea576040517f08c379a00000000000000000000000000000000000000000000000000000000081526004016106e190610d15565b60405180910390fd5b60005b60008054905081101561079c5760006001600080848154811061071357610712610c54565b5b9060005260206000200160009054906101000a900473ffffffffffffffffffffffffffffffffffffffff1673ffffffffffffffffffffffffffffffffffffffff1673ffffffffffffffffffffffffffffffffffffffff16815260200190815260200160002060006101000a81548160ff02191690831515021790555080806001019150506106ed565b506000806107aa9190610804565b6001600360008282546107bd9190610d64565b9250508190555050505050565b600044426000805490506040516020016107e693929190610db9565b6040516020818303038152906040528051906020012060001c905090565b50805460008255906000526020600020908101906108229190610825565b50565b5b8082111561083e576000816000905550600101610826565b5090565b6000819050919050565b61085581610842565b82525050565b6000602082019050610870600083018461084c565b92915050565b600080fd5b600073ffffffffffffffffffffffffffffffffffffffff82169050919050565b60006108a68261087b565b9050919050565b6108b68161089b565b81146108c157600080fd5b50565b6000813590506108d3816108ad565b92915050565b6000602082840312156108ef576108ee610876565b5b60006108fd848285016108c4565b91505092915050565b60008115159050919050565b61091b81610906565b82525050565b60006020820190506109366000830184610912565b92915050565b600081519050919050565b600082825260208201905092915050565b6000819050602082019050919050565b6109718161089b565b82525050565b60006109838383610968565b60208301905092915050565b6000602082019050919050565b60006109a78261093c565b6109b18185610947565b93506109bc83610958565b8060005b838110156109ed5781516109d48882610977565b97506109df8361098f565b9250506001810190506109c0565b5085935050505092915050565b60006020820190508181036000830152610a14818461099c565b905092915050565b610a2581610842565b8114610a3057600080fd5b50565b600081359050610a4281610a1c565b92915050565b600060208284031215610a5e57610a5d610876565b5b6000610a6c84828501610a33565b91505092915050565b610a7e8161089b565b82525050565b6000602082019050610a996000830184610a75565b92915050565b600082825260208201905092915050565b7f496e76616c696420656e74727920666565000000000000000000000000000000600082015250565b6000610ae6601183610a9f565b9150610af182610ab0565b602082019050919050565b60006020820190508181036000830152610b1581610ad9565b9050919050565b7f416c726561647920656e74657265640000000000000000000000000000000000600082015250565b6000610b52600f83610a9f565b9150610b5d82610b1c565b602082019050919050565b60006020820190508181036000830152610b8181610b45565b9050919050565b7f4e6f7420656e6f75676820706c61796572730000000000000000000000000000600082015250565b6000610bbe601283610a9f565b9150610bc982610b88565b602082019050919050565b60006020820190508181036000830152610bed81610bb1565b9050919050565b7f4e487b7100000000000000000000000000000000000000000000000000000000600052601260045260246000fd5b6000610c2e82610842565b9150610c3983610842565b925082610c4957610c48610bf4565b5b828206905092915050565b7f4e487b7100000000000000000000000000000000000000000000000000000000600052603260045260246000fd5b600081905092915050565b50565b6000610c9e600083610c83565b9150610ca982610c8e565b600082019050919050565b6000610cbf82610c91565b9150819050919050565b7f5472616e73666572206661696c65640000000000000000000000000000000000600082015250565b6000610cff600f83610a9f565b9150610d0a82610cc9565b602082019050919050565b60006020820190508181036000830152610d2e81610cf2565b9050919050565b7f4e487b7100000000000000000000000000000000000000000000000000000000600052601160045260246000fd5b6000610d6f82610842565b9150610d7a83610842565b9250828201905080821115610d9257610d91610d35565b5b92915050565b6000819050919050565b610db3610dae82610842565b610d98565b82525050565b6000610dc58286610da2565b602082019150610dd58285610da2565b602082019150610de58284610da2565b60208201915081905094935050505056fea2646970667358221220bd928eb8bdc35f96ac18543fd48a1a9ee46b7600a31bb565be083e52aff4811164736f6c634300081e0033",
  "linkReferences": {},
  "deployedLinkReferences": {}
}