{
  "_format": "hh-sol-artifact-1",
  "contractName": "ERC721WithRoles",
  "sourceName": "contracts/ERC721WithRoles.sol",
  "abi": [
    {
      "inputs": [
        {
          "internalType": "string",
          "name": "name_",
          "type": "string"
        },
        {
          "internalType": "string",
          "name": "symbol_",
          "type": "string"
        }
      ],
      "stateMutability": "nonpayable",
      "type": "constructor"
    },
    {
      "inputs": [
        {
          "internalType": "address",
          "name": "sender",
          "type": "address"
        },
        {
          "internalType": "uint256",
          "name": "tokenId",
          "type": "uint256"
        },
        {
          "internalType": "address",
          "name": "owner",
          "type": "address"
        }
      ],
      "name": "ERC721IncorrectOwner",
      "type": "error"
    },
    {
      "inputs": [
        {
          "internalType": "address",
          "name": "operator",
          "type": "address"
        },
        {
          "internalType": "uint256",
          "name": "tokenId",
          "type": "uint256"
        }
      ],
      "name": "ERC721InsufficientApproval",
      "type": "error"
    },
    {
      "inputs": [
        {
          "internalType": "address",
          "name": "approver",
          "type": "address"
        }
      ],
      "name": "ERC721InvalidApprover",
      "type": "error"
    },
    {
      "inputs": [
        {
          "internalType": "address",
          "name": "operator",
          "type": "address"
        }
      ],
      "name": "ERC721InvalidOperator",
      "type": "error"
    },
    {
      "inputs": [
        {
          "internalType": "address",
          "name": "owner",
          "type": "address"
        }
      ],
      "name": "ERC721InvalidOwner",
      "type": "error"
    },
    {
      "inputs": [
        {
          "internalType": "address",
          "name": "receiver",
          "type": "address"
        }
      ],
      "name": "ERC721InvalidReceiver",
      "type": "error"
    },
    {
      "inputs": [
        {
          "internalType": "address",
          "name": "sender",
          "type": "address"
        }
      ],
      "name": "ERC721InvalidSender",
      "type": "error"
    },
    {
      "inputs": [
        {
          "internalType": "uint256",
          "name": "tokenId",
          "type": "uint256"
        }
      ],
      "name": "ERC721NonexistentToken",
      "type": "error"
    },
    {
      "inputs": [
        {
          "internalType": "address",
          "name": "owner",
          "type": "address"
        }
      ],
      "name": "OwnableInvalidOwner",
      "type": "error"
    },
    {
      "inputs": [
        {
          "internalType": "address",
          "name": "account",
          "type": "address"
        }
      ],
      "name": "OwnableUnauthorizedAccount",
      "type": "error"
    },
    {
      "anonymous": false,
      "inputs": [
        {
          "indexed": true,
          "internalType": "address",
          "name": "owner",
          "type": "address"
        },
        {
          "indexed": true,
          "internalType": "address",
          "name": "approved",
          "type": "address"
        },
        {
          "indexed": true,
          "internalType": "uint256",
          "name": "tokenId",
          "type": "uint256"
        }
      ],
      "name": "Approval",
      "type": "event"
    },
    {
      "anonymous": false,
      "inputs": [
        {
          "indexed": true,
          "internalType": "address",
          "name": "owner",
          "type": "address"
        },
        {
          "indexed": true,
          "internalType": "address",
          "name": "operator",
          "type": "address"
        },
        {
          "indexed": false,
          "internalType": "bool",
          "name": "approved",
          "type": "bool"
        }
      ],
      "name": "ApprovalForAll",
      "type": "event"
    },
    {
      "anonymous": false,
      "inputs": [
        {
          "indexed": true,
          "internalType": "address",
          "name": "previousOwner",
          "type": "address"
        },
        {
          "indexed": true,
          "internalType": "address",
          "name": "newOwner",
          "type": "address"
        }
      ],
      "name": "OwnershipTransferred",
      "type": "event"
    },
    {
      "anonymous": false,
      "inputs": [
        {
          "indexed": true,
          "internalType": "uint256",
          "name": "tokenId",
          "type": "uint256"
        },
        {
          "indexed": true,
          "internalType": "bytes32",
          "name": "role",
          "type": "bytes32"
        },
        {
          "indexed": true,
          "internalType": "address",
          "name": "grantee",
          "type": "address"
        },
        {
          "indexed": false,
          "internalType": "uint64",
          "name": "expiration",
          "type": "uint64"
        },
        {
          "indexed": false,
          "internalType": "bytes",
          "name": "data",
          "type": "bytes"
        }
      ],
      "name": "RoleGranted",
      "type": "event"
    },
    {
      "anonymous": false,
      "inputs": [
        {
          "indexed": true,
          "internalType": "uint256",
          "name": "tokenId",
          "type": "uint256"
        },
        {
          "indexed": true,
          "internalType": "bytes32",
          "name": "role",
          "type": "bytes32"
        },
        {
          "indexed": true,
          "internalType": "address",
          "name": "grantee",
          "type": "address"
        },
        {
          "indexed": false,
          "internalType": "address",
          "name": "revoker",
          "type": "address"
        }
      ],
      "name": "RoleRevoked",
      "type": "event"
    },
    {
      "anonymous": false,
      "inputs": [
        {
          "indexed": true,
          "internalType": "address",
          "name": "from",
          "type": "address"
        },
        {
          "indexed": true,
          "internalType": "address",
          "name": "to",
          "type": "address"
        },
        {
          "indexed": true,
          "internalType": "uint256",
          "name": "tokenId",
          "type": "uint256"
        }
      ],
      "name": "Transfer",
      "type": "event"
    },
    {
      "inputs": [
        {
          "internalType": "address",
          "name": "to",
          "type": "address"
        },
        {
          "internalType": "uint256",
          "name": "tokenId",
          "type": "uint256"
        }
      ],
      "name": "approve",
      "outputs": [],
      "stateMutability": "nonpayable",
      "type": "function"
    },
    {
      "inputs": [
        {
          "internalType": "address",
          "name": "owner",
          "type": "address"
        }
      ],
      "name": "balanceOf",
      "outputs": [
        {
          "internalType": "uint256",
          "name": "",
          "type": "uint256"
        }
      ],
      "stateMutability": "view",
      "type": "function"
    },
    {
      "inputs": [
        {
          "internalType": "uint256",
          "name": "tokenId",
          "type": "uint256"
        }
      ],
      "name": "getApproved",
      "outputs": [
        {
          "internalType": "address",
          "name": "",
          "type": "address"
        }
      ],
      "stateMutability": "view",
      "type": "function"
    },
    {
      "inputs": [
        {
          "internalType": "uint256",
          "name": "tokenId",
          "type": "uint256"
        },
        {
          "internalType": "address",
          "name": "grantee",
          "type": "address"
        },
        {
          "internalType": "bytes32",
          "name": "role",
          "type": "bytes32"
        },
        {
          "internalType": "uint64",
          "name": "expiration",
          "type": "uint64"
        },
        {
          "internalType": "bytes",
          "name": "data",
          "type": "bytes"
        }
      ],
      "name": "grantRole",
      "outputs": [],
      "stateMutability": "nonpayable",
      "type": "function"
    },
    {
      "inputs": [
        {
          "internalType": "uint256",
          "name": "tokenId",
          "type": "uint256"
        },
        {
          "internalType": "address",
          "name": "grantee",
          "type": "address"
        },
        {
          "internalType": "bytes32",
          "name": "role",
          "type": "bytes32"
        }
      ],
      "name": "hasRole",
      "outputs": [
        {
          "internalType": "bool",
          "name": "",
          "type": "bool"
        }
      ],
      "stateMutability": "view",
      "type": "function"
    },
    {
      "inputs": [
        {
          "internalType": "address",
          "name": "owner",
          "type": "address"
        },
        {
          "internalType": "address",
          "name": "operator",
          "type": "address"
        }
      ],
      "name": "isApprovedForAll",
      "outputs": [
        {
          "internalType": "bool",
          "name": "",
          "type": "bool"
        }
      ],
      "stateMutability": "view",
      "type": "function"
    },
    {
      "inputs": [
        {
          "internalType": "address",
          "name": "to",
          "type": "address"
        },
        {
          "internalType": "uint256",
          "name": "tokenId",
          "type": "uint256"
        }
      ],
      "name": "mint",
      "outputs": [],
      "stateMutability": "nonpayable",
      "type": "function"
    },
    {
      "inputs": [],
      "name": "name",
      "outputs": [
        {
          "internalType": "string",
          "name": "",
          "type": "string"
        }
      ],
      "stateMutability": "view",
      "type": "function"
    },
    {
      "inputs": [],
      "name": "owner",
      "outputs": [
        {
          "internalType": "address",
          "name": "",
          "type": "address"
        }
      ],
      "stateMutability": "view",
      "type": "function"
    },
    {
      "inputs": [
        {
          "internalType": "uint256",
          "name": "tokenId",
          "type": "uint256"
        }
      ],
      "name": "ownerOf",
      "outputs": [
        {
          "internalType": "address",
          "name": "",
          "type": "address"
        }
      ],
      "stateMutability": "view",
      "type": "function"
    },
    {
      "inputs": [],
      "name": "renounceOwnership",
      "outputs": [],
      "stateMutability": "nonpayable",
      "type": "function"
    },
    {
      "inputs": [
        {
          "internalType": "uint256",
          "name": "tokenId",
          "type": "uint256"
        },
        {
          "internalType": "address",
          "name": "grantee",
          "type": "address"
        },
        {
          "internalType": "bytes32",
          "name": "role",
          "type": "bytes32"
        }
      ],
      "name": "revokeRole",
      "outputs": [],
      "stateMutability": "nonpayable",
      "type": "function"
    },
    {
      "inputs": [
        {
          "internalType": "uint256",
          "name": "tokenId",
          "type": "uint256"
        },
        {
          "internalType": "address",
          "name": "grantee",
          "type": "address"
        },
        {
          "internalType": "bytes32",
          "name": "role",
          "type": "bytes32"
        }
      ],
      "name": "roleExpiration",
      "outputs": [
        {
          "internalType": "uint64",
          "name": "",
          "type": "uint64"
        }
      ],
      "stateMutability": "view",
      "type": "function"
    },
    {
      "inputs": [
        {
          "internalType": "address",
          "name": "from",
          "type": "address"
        },
        {
          "internalType": "address",
          "name": "to",
          "type": "address"
        },
        {
          "internalType": "uint256",
          "name": "tokenId",
          "type": "uint256"
        }
      ],
      "name": "safeTransferFrom",
      "outputs": [],
      "stateMutability": "nonpayable",
      "type": "function"
    },
    {
      "inputs": [
        {
          "internalType": "address",
          "name": "from",
          "type": "address"
        },
        {
          "internalType": "address",
          "name": "to",
          "type": "address"
        },
        {
          "internalType": "uint256",
          "name": "tokenId",
          "type": "uint256"
        },
        {
          "internalType": "bytes",
          "name": "data",
          "type": "bytes"
        }
      ],
      "name": "safeTransferFrom",
      "outputs": [],
      "stateMutability": "nonpayable",
      "type": "function"
    },
    {
      "inputs": [
        {
          "internalType": "address",
          "name": "operator",
          "type": "address"
        },
        {
          "internalType": "bool",
          "name": "approved",
          "type": "bool"
        }
      ],
      "name": "setApprovalForAll",
      "outputs": [],
      "stateMutability": "nonpayable",
      "type": "function"
    },
    {
      "inputs": [
        {
          "internalType": "bytes4",
          "name": "interfaceId",
          "type": "bytes4"
        }
      ],
      "name": "supportsInterface",
      "outputs": [
        {
          "internalType": "bool",
          "name": "",
          "type": "bool"
        }
      ],
      "stateMutability": "view",
      "type": "function"
    },
    {
      "inputs": [],
      "name": "symbol",
      "outputs": [
        {
          "internalType": "string",
          "name": "",
          "type": "string"
        }
      ],
      "stateMutability": "view",
      "type": "function"
    },
    {
      "inputs": [
        {
          "internalType": "uint256",
          "name": "tokenId",
          "type": "uint256"
        }
      ],
      "name": "tokenURI",
      "outputs": [
        {
          "internalType": "string",
          "name": "",
          "type": "string"
        }
      ],
      "stateMutability": "view",
      "type": "function"
    },
    {
      "inputs": [
        {
          "internalType": "address",
          "name": "from",
          "type": "address"
        },
        {
          "internalType": "address",
          "name": "to",
          "type": "address"
        },
        {
          "internalType": "uint256",
          "name": "tokenId",
          "type": "uint256"
        }
      ],
      "name": "transferFrom",
      "outputs": [],
      "stateMutability": "nonpayable",
      "type": "function"
    },
    {
      "inputs": [
        {
          "internalType": "address",
          "name": "newOwner",
          "type": "address"
        }
      ],
      "name": "transferOwnership",
      "outputs": [],
      "stateMutability": "nonpayable",
      "type": "function"
    }
  ],
  "bytecode": "0x608060405234801561001057600080fd5b5060405161306c38038061306c8339818101604052810190610032919061031b565b338282816000908161004491906105b4565b50806001908161005491906105b4565b505050600073ffffffffffffffffffffffffffffffffffffffff168173ffffffffffffffffffffffffffffffffffffffff16036100c95760006040517f1e4fbdf70000000000000000000000000000000000000000000000000000000081526004016100c091906106c7565b60405180910390fd5b6100d8816100e060201b60201c565b5050506106e2565b6000600660009054906101000a900473ffffffffffffffffffffffffffffffffffffffff16905081600660006101000a81548173ffffffffffffffffffffffffffffffffffffffff021916908373ffffffffffffffffffffffffffffffffffffffff1602179055508173ffffffffffffffffffffffffffffffffffffffff168173ffffffffffffffffffffffffffffffffffffffff167f8be0079c531659141344cd1fd0a4f28419497f9722a3daafe3b4186f6b6457e060405160405180910390a35050565b6000604051905090565b600080fd5b600080fd5b600080fd5b600080fd5b6000601f19601f8301169050919050565b7f4e487b7100000000000000000000000000000000000000000000000000000000600052604160045260246000fd5b61020d826101c4565b810181811067ffffffffffffffff8211171561022c5761022b6101d5565b5b80604052505050565b600061023f6101a6565b905061024b8282610204565b919050565b600067ffffffffffffffff82111561026b5761026a6101d5565b5b610274826101c4565b9050602081019050919050565b60005b8381101561029f578082015181840152602081019050610284565b60008484015250505050565b60006102be6102b984610250565b610235565b9050828152602081018484840111156102da576102d96101bf565b5b6102e5848285610281565b509392505050565b600082601f830112610302576103016101ba565b5b81516103128482602086016102ab565b91505092915050565b60008060408385031215610332576103316101b0565b5b600083015167ffffffffffffffff8111156103505761034f6101b5565b5b61035c858286016102ed565b925050602083015167ffffffffffffffff81111561037d5761037c6101b5565b5b610389858286016102ed565b9150509250929050565b600081519050919050565b7f4e487b7100000000000000000000000000000000000000000000000000000000600052602260045260246000fd5b600060028204905060018216806103e557607f821691505b6020821081036103f8576103f761039e565b5b50919050565b60008190508160005260206000209050919050565b60006020601f8301049050919050565b600082821b905092915050565b6000600883026104607fffffffffffffffffffffffffffffffffffffffffffffffffffffffffffffffff82610423565b61046a8683610423565b95508019841693508086168417925050509392505050565b6000819050919050565b6000819050919050565b60006104b16104ac6104a784610482565b61048c565b610482565b9050919050565b6000819050919050565b6104cb83610496565b6104df6104d7826104b8565b848454610430565b825550505050565b600090565b6104f46104e7565b6104ff8184846104c2565b505050565b5b81811015610523576105186000826104ec565b600181019050610505565b5050565b601f82111561056857610539816103fe565b61054284610413565b81016020851015610551578190505b61056561055d85610413565b830182610504565b50505b505050565b600082821c905092915050565b600061058b6000198460080261056d565b1980831691505092915050565b60006105a4838361057a565b9150826002028217905092915050565b6105bd82610393565b67ffffffffffffffff8111156105d6576105d56101d5565b5b6105e082546103cd565b6105eb828285610527565b600060209050601f83116001811461061e576000841561060c578287015190505b6106168582610598565b86555061067e565b601f19841661062c866103fe565b60005b828110156106545784890151825560018201915060208501945060208101905061062f565b86831015610671578489015161066d601f89168261057a565b8355505b6001600288020188555050505b505050505050565b600073ffffffffffffffffffffffffffffffffffffffff82169050919050565b60006106b182610686565b9050919050565b6106c1816106a6565b82525050565b60006020820190506106dc60008301846106b8565b92915050565b61297b806106f16000396000f3fe608060405234801561001057600080fd5b50600436106101375760003560e01c806370a08231116100b8578063acf1689c1161007c578063acf1689c14610338578063b88d4fde14610354578063c87b56dd14610370578063d9792413146103a0578063e985e9c5146103d0578063f2fde38b1461040057610137565b806370a08231146102a6578063715018a6146102d65780638da5cb5b146102e057806395d89b41146102fe578063a22cb4651461031c57610137565b806323b872dd116100ff57806323b872dd1461020657806340c10f191461022257806342842e0e1461023e578063471ade981461025a5780636352211e1461027657610137565b806301ffc9a71461013c57806306fdde031461016c578063081812fc1461018a578063095ea7b3146101ba5780631ca5b571146101d6575b600080fd5b61015660048036038101906101519190611f0d565b61041c565b6040516101639190611f55565b60405180910390f35b610174610496565b6040516101819190612000565b60405180910390f35b6101a4600480360381019061019f9190612058565b610528565b6040516101b191906120c6565b60405180910390f35b6101d460048036038101906101cf919061210d565b610544565b005b6101f060048036038101906101eb9190612183565b61055a565b6040516101fd9190611f55565b60405180910390f35b610220600480360381019061021b91906121d6565b610668565b005b61023c6004803603810190610237919061210d565b61076a565b005b610258600480360381019061025391906121d6565b610780565b005b610274600480360381019061026f9190612183565b6107a0565b005b610290600480360381019061028b9190612058565b61090f565b60405161029d91906120c6565b60405180910390f35b6102c060048036038101906102bb9190612229565b610921565b6040516102cd9190612265565b60405180910390f35b6102de6109db565b005b6102e86109ef565b6040516102f591906120c6565b60405180910390f35b610306610a19565b6040516103139190612000565b60405180910390f35b610336600480360381019061033191906122ac565b610aab565b005b610352600480360381019061034d9190612391565b610ac1565b005b61036e6004803603810190610369919061255b565b610bfb565b005b61038a60048036038101906103859190612058565b610c20565b6040516103979190612000565b60405180910390f35b6103ba60048036038101906103b59190612183565b610c89565b6040516103c791906125ed565b60405180910390f35b6103ea60048036038101906103e59190612608565b610d0d565b6040516103f79190611f55565b60405180910390f35b61041a60048036038101906104159190612229565b610da1565b005b60007f2e372766000000000000000000000000000000000000000000000000000000007bffffffffffffffffffffffffffffffffffffffffffffffffffffffff1916827bffffffffffffffffffffffffffffffffffffffffffffffffffffffff1916148061048f575061048e82610e27565b5b9050919050565b6060600080546104a590612677565b80601f01602080910402602001604051908101604052809291908181526020018280546104d190612677565b801561051e5780601f106104f35761010080835404028352916020019161051e565b820191906000526020600020905b81548152906001019060200180831161050157829003601f168201915b5050505050905090565b600061053382610f09565b5061053d82610f91565b9050919050565b6105568282610551610fce565b610fd6565b5050565b60008060076000868152602001908152602001600020600084815260200190815260200160002060008573ffffffffffffffffffffffffffffffffffffffff1673ffffffffffffffffffffffffffffffffffffffff1681526020019081526020016000206040518060400160405290816000820160009054906101000a900467ffffffffffffffff1667ffffffffffffffff1667ffffffffffffffff1681526020016000820160089054906101000a900460ff1615151515815250509050806020015161062b576000915050610661565b6000816000015167ffffffffffffffff160361064b576001915050610661565b806000015167ffffffffffffffff164211159150505b9392505050565b600073ffffffffffffffffffffffffffffffffffffffff168273ffffffffffffffffffffffffffffffffffffffff16036106da5760006040517f64a0ae920000000000000000000000000000000000000000000000000000000081526004016106d191906120c6565b60405180910390fd5b60006106ee83836106e9610fce565b610fe8565b90508373ffffffffffffffffffffffffffffffffffffffff168173ffffffffffffffffffffffffffffffffffffffff1614610764578382826040517f64283d7b00000000000000000000000000000000000000000000000000000000815260040161075b939291906126a8565b60405180910390fd5b50505050565b610772611202565b61077c8282611289565b5050565b61079b83838360405180602001604052806000815250610bfb565b505050565b6107a9836112a7565b600060076000858152602001908152602001600020600083815260200190815260200160002060008473ffffffffffffffffffffffffffffffffffffffff1673ffffffffffffffffffffffffffffffffffffffff16815260200190815260200160002090508060000160089054906101000a900460ff16156109095760076000858152602001908152602001600020600083815260200190815260200160002060008473ffffffffffffffffffffffffffffffffffffffff1673ffffffffffffffffffffffffffffffffffffffff168152602001908152602001600020600080820160006101000a81549067ffffffffffffffff02191690556000820160086101000a81549060ff021916905550508273ffffffffffffffffffffffffffffffffffffffff1682857f7b00293d63517946aeba2f56c6b4c5dec87b67393ac48520994d3d8ce776335a3360405161090091906120c6565b60405180910390a45b50505050565b600061091a82610f09565b9050919050565b60008073ffffffffffffffffffffffffffffffffffffffff168273ffffffffffffffffffffffffffffffffffffffff16036109945760006040517f89c62b6400000000000000000000000000000000000000000000000000000000815260040161098b91906120c6565b60405180910390fd5b600360008373ffffffffffffffffffffffffffffffffffffffff1673ffffffffffffffffffffffffffffffffffffffff168152602001908152602001600020549050919050565b6109e3611202565b6109ed6000611375565b565b6000600660009054906101000a900473ffffffffffffffffffffffffffffffffffffffff16905090565b606060018054610a2890612677565b80601f0160208091040260200160405190810160405280929190818152602001828054610a5490612677565b8015610aa15780601f10610a7657610100808354040283529160200191610aa1565b820191906000526020600020905b815481529060010190602001808311610a8457829003601f168201915b5050505050905090565b610abd610ab6610fce565b838361143b565b5050565b610aca866112a7565b60405180604001604052808467ffffffffffffffff1681526020016001151581525060076000888152602001908152602001600020600086815260200190815260200160002060008773ffffffffffffffffffffffffffffffffffffffff1673ffffffffffffffffffffffffffffffffffffffff16815260200190815260200160002060008201518160000160006101000a81548167ffffffffffffffff021916908367ffffffffffffffff16021790555060208201518160000160086101000a81548160ff0219169083151502179055509050508473ffffffffffffffffffffffffffffffffffffffff1684877fec0e3c94494250e3d2403640ecc9036c7530c1a59b8bd8b5cd459a2317dc2014868686604051610beb9392919061271d565b60405180910390a4505050505050565b610c06848484610668565b610c1a610c11610fce565b858585856115aa565b50505050565b6060610c2b82610f09565b506000610c3661175b565b90506000815111610c565760405180602001604052806000815250610c81565b80610c6084611772565b604051602001610c7192919061278b565b6040516020818303038152906040525b915050919050565b600060076000858152602001908152602001600020600083815260200190815260200160002060008473ffffffffffffffffffffffffffffffffffffffff1673ffffffffffffffffffffffffffffffffffffffff16815260200190815260200160002060000160009054906101000a900467ffffffffffffffff1690509392505050565b6000600560008473ffffffffffffffffffffffffffffffffffffffff1673ffffffffffffffffffffffffffffffffffffffff16815260200190815260200160002060008373ffffffffffffffffffffffffffffffffffffffff1673ffffffffffffffffffffffffffffffffffffffff16815260200190815260200160002060009054906101000a900460ff16905092915050565b610da9611202565b600073ffffffffffffffffffffffffffffffffffffffff168173ffffffffffffffffffffffffffffffffffffffff1603610e1b5760006040517f1e4fbdf7000000000000000000000000000000000000000000000000000000008152600401610e1291906120c6565b60405180910390fd5b610e2481611375565b50565b60007f80ac58cd000000000000000000000000000000000000000000000000000000007bffffffffffffffffffffffffffffffffffffffffffffffffffffffff1916827bffffffffffffffffffffffffffffffffffffffffffffffffffffffff19161480610ef257507f5b5e139f000000000000000000000000000000000000000000000000000000007bffffffffffffffffffffffffffffffffffffffffffffffffffffffff1916827bffffffffffffffffffffffffffffffffffffffffffffffffffffffff1916145b80610f025750610f0182611840565b5b9050919050565b600080610f15836118aa565b9050600073ffffffffffffffffffffffffffffffffffffffff168173ffffffffffffffffffffffffffffffffffffffff1603610f8857826040517f7e273289000000000000000000000000000000000000000000000000000000008152600401610f7f9190612265565b60405180910390fd5b80915050919050565b60006004600083815260200190815260200160002060009054906101000a900473ffffffffffffffffffffffffffffffffffffffff169050919050565b600033905090565b610fe383838360016118e7565b505050565b600080610ff4846118aa565b9050600073ffffffffffffffffffffffffffffffffffffffff168373ffffffffffffffffffffffffffffffffffffffff161461103657611035818486611aac565b5b600073ffffffffffffffffffffffffffffffffffffffff168173ffffffffffffffffffffffffffffffffffffffff16146110c7576110786000856000806118e7565b6001600360008373ffffffffffffffffffffffffffffffffffffffff1673ffffffffffffffffffffffffffffffffffffffff168152602001908152602001600020600082825403925050819055505b600073ffffffffffffffffffffffffffffffffffffffff168573ffffffffffffffffffffffffffffffffffffffff161461114a576001600360008773ffffffffffffffffffffffffffffffffffffffff1673ffffffffffffffffffffffffffffffffffffffff168152602001908152602001600020600082825401925050819055505b846002600086815260200190815260200160002060006101000a81548173ffffffffffffffffffffffffffffffffffffffff021916908373ffffffffffffffffffffffffffffffffffffffff160217905550838573ffffffffffffffffffffffffffffffffffffffff168273ffffffffffffffffffffffffffffffffffffffff167fddf252ad1be2c89b69c2b068fc378daa952ba7f163c4a11628f55a4df523b3ef60405160405180910390a4809150509392505050565b61120a610fce565b73ffffffffffffffffffffffffffffffffffffffff166112286109ef565b73ffffffffffffffffffffffffffffffffffffffff16146112875761124b610fce565b6040517f118cdaa700000000000000000000000000000000000000000000000000000000815260040161127e91906120c6565b60405180910390fd5b565b6112a3828260405180602001604052806000815250611b70565b5050565b60006112b28261090f565b90508073ffffffffffffffffffffffffffffffffffffffff163373ffffffffffffffffffffffffffffffffffffffff1614806112f457506112f38133610d0d565b5b8061133257503373ffffffffffffffffffffffffffffffffffffffff1661131a83610528565b73ffffffffffffffffffffffffffffffffffffffff16145b611371576040517f08c379a0000000000000000000000000000000000000000000000000000000008152600401611368906127fb565b60405180910390fd5b5050565b6000600660009054906101000a900473ffffffffffffffffffffffffffffffffffffffff16905081600660006101000a81548173ffffffffffffffffffffffffffffffffffffffff021916908373ffffffffffffffffffffffffffffffffffffffff1602179055508173ffffffffffffffffffffffffffffffffffffffff168173ffffffffffffffffffffffffffffffffffffffff167f8be0079c531659141344cd1fd0a4f28419497f9722a3daafe3b4186f6b6457e060405160405180910390a35050565b600073ffffffffffffffffffffffffffffffffffffffff168273ffffffffffffffffffffffffffffffffffffffff16036114ac57816040517f5b08ba180000000000000000000000000000000000000000000000000000000081526004016114a391906120c6565b60405180910390fd5b80600560008573ffffffffffffffffffffffffffffffffffffffff1673ffffffffffffffffffffffffffffffffffffffff16815260200190815260200160002060008473ffffffffffffffffffffffffffffffffffffffff1673ffffffffffffffffffffffffffffffffffffffff16815260200190815260200160002060006101000a81548160ff0219169083151502179055508173ffffffffffffffffffffffffffffffffffffffff168373ffffffffffffffffffffffffffffffffffffffff167f17307eab39ab6107e8899845ad3d59bd9653f200f220920489ca2b5937696c318360405161159d9190611f55565b60405180910390a3505050565b60008373ffffffffffffffffffffffffffffffffffffffff163b1115611754578273ffffffffffffffffffffffffffffffffffffffff1663150b7a02868685856040518563ffffffff1660e01b8152600401611609949392919061285f565b6020604051808303816000875af192505050801561164557506040513d601f19601f8201168201806040525081019061164291906128c0565b60015b6116c9573d8060008114611675576040519150601f19603f3d011682016040523d82523d6000602084013e61167a565b606091505b5060008151036116c157836040517f64a0ae920000000000000000000000000000000000000000000000000000000081526004016116b891906120c6565b60405180910390fd5b805160208201fd5b63150b7a0260e01b7bffffffffffffffffffffffffffffffffffffffffffffffffffffffff1916817bffffffffffffffffffffffffffffffffffffffffffffffffffffffff19161461175257836040517f64a0ae9200000000000000000000000000000000000000000000000000000000815260040161174991906120c6565b60405180910390fd5b505b5050505050565b606060405180602001604052806000815250905090565b60606000600161178184611b94565b01905060008167ffffffffffffffff8111156117a05761179f612430565b5b6040519080825280601f01601f1916602001820160405280156117d25781602001600182028036833780820191505090505b509050600082602083010190505b600115611835578080600190039150507f3031323334353637383961626364656600000000000000000000000000000000600a86061a8153600a8581611829576118286128ed565b5b049450600085036117e0575b819350505050919050565b60007f01ffc9a7000000000000000000000000000000000000000000000000000000007bffffffffffffffffffffffffffffffffffffffffffffffffffffffff1916827bffffffffffffffffffffffffffffffffffffffffffffffffffffffff1916149050919050565b60006002600083815260200190815260200160002060009054906101000a900473ffffffffffffffffffffffffffffffffffffffff169050919050565b80806119205750600073ffffffffffffffffffffffffffffffffffffffff168273ffffffffffffffffffffffffffffffffffffffff1614155b15611a5457600061193084610f09565b9050600073ffffffffffffffffffffffffffffffffffffffff168373ffffffffffffffffffffffffffffffffffffffff161415801561199b57508273ffffffffffffffffffffffffffffffffffffffff168173ffffffffffffffffffffffffffffffffffffffff1614155b80156119ae57506119ac8184610d0d565b155b156119f057826040517fa9fbf51f0000000000000000000000000000000000000000000000000000000081526004016119e791906120c6565b60405180910390fd5b8115611a5257838573ffffffffffffffffffffffffffffffffffffffff168273ffffffffffffffffffffffffffffffffffffffff167f8c5be1e5ebec7d5bd14f71427d1e84f3dd0314c0f7b2291e5b200ac8c7c3b92560405160405180910390a45b505b836004600085815260200190815260200160002060006101000a81548173ffffffffffffffffffffffffffffffffffffffff021916908373ffffffffffffffffffffffffffffffffffffffff16021790555050505050565b611ab7838383611ce7565b611b6b57600073ffffffffffffffffffffffffffffffffffffffff168373ffffffffffffffffffffffffffffffffffffffff1603611b2c57806040517f7e273289000000000000000000000000000000000000000000000000000000008152600401611b239190612265565b60405180910390fd5b81816040517f177e802f000000000000000000000000000000000000000000000000000000008152600401611b6292919061291c565b60405180910390fd5b505050565b611b7a8383611da8565b611b8f611b85610fce565b60008585856115aa565b505050565b600080600090507a184f03e93ff9f4daa797ed6e38ed64bf6a1f0100000000000000008310611bf2577a184f03e93ff9f4daa797ed6e38ed64bf6a1f0100000000000000008381611be857611be76128ed565b5b0492506040810190505b6d04ee2d6d415b85acef81000000008310611c2f576d04ee2d6d415b85acef81000000008381611c2557611c246128ed565b5b0492506020810190505b662386f26fc100008310611c5e57662386f26fc100008381611c5457611c536128ed565b5b0492506010810190505b6305f5e1008310611c87576305f5e1008381611c7d57611c7c6128ed565b5b0492506008810190505b6127108310611cac576127108381611ca257611ca16128ed565b5b0492506004810190505b60648310611ccf5760648381611cc557611cc46128ed565b5b0492506002810190505b600a8310611cde576001810190505b80915050919050565b60008073ffffffffffffffffffffffffffffffffffffffff168373ffffffffffffffffffffffffffffffffffffffff1614158015611d9f57508273ffffffffffffffffffffffffffffffffffffffff168473ffffffffffffffffffffffffffffffffffffffff161480611d605750611d5f8484610d0d565b5b80611d9e57508273ffffffffffffffffffffffffffffffffffffffff16611d8683610f91565b73ffffffffffffffffffffffffffffffffffffffff16145b5b90509392505050565b600073ffffffffffffffffffffffffffffffffffffffff168273ffffffffffffffffffffffffffffffffffffffff1603611e1a5760006040517f64a0ae92000000000000000000000000000000000000000000000000000000008152600401611e1191906120c6565b60405180910390fd5b6000611e2883836000610fe8565b9050600073ffffffffffffffffffffffffffffffffffffffff168173ffffffffffffffffffffffffffffffffffffffff1614611e9c5760006040517f73c6ac6e000000000000000000000000000000000000000000000000000000008152600401611e9391906120c6565b60405180910390fd5b505050565b6000604051905090565b600080fd5b600080fd5b60007fffffffff0000000000000000000000000000000000000000000000000000000082169050919050565b611eea81611eb5565b8114611ef557600080fd5b50565b600081359050611f0781611ee1565b92915050565b600060208284031215611f2357611f22611eab565b5b6000611f3184828501611ef8565b91505092915050565b60008115159050919050565b611f4f81611f3a565b82525050565b6000602082019050611f6a6000830184611f46565b92915050565b600081519050919050565b600082825260208201905092915050565b60005b83811015611faa578082015181840152602081019050611f8f565b60008484015250505050565b6000601f19601f8301169050919050565b6000611fd282611f70565b611fdc8185611f7b565b9350611fec818560208601611f8c565b611ff581611fb6565b840191505092915050565b6000602082019050818103600083015261201a8184611fc7565b905092915050565b6000819050919050565b61203581612022565b811461204057600080fd5b50565b6000813590506120528161202c565b92915050565b60006020828403121561206e5761206d611eab565b5b600061207c84828501612043565b91505092915050565b600073ffffffffffffffffffffffffffffffffffffffff82169050919050565b60006120b082612085565b9050919050565b6120c0816120a5565b82525050565b60006020820190506120db60008301846120b7565b92915050565b6120ea816120a5565b81146120f557600080fd5b50565b600081359050612107816120e1565b92915050565b6000806040838503121561212457612123611eab565b5b6000612132858286016120f8565b925050602061214385828601612043565b9150509250929050565b6000819050919050565b6121608161214d565b811461216b57600080fd5b50565b60008135905061217d81612157565b92915050565b60008060006060848603121561219c5761219b611eab565b5b60006121aa86828701612043565b93505060206121bb868287016120f8565b92505060406121cc8682870161216e565b9150509250925092565b6000806000606084860312156121ef576121ee611eab565b5b60006121fd868287016120f8565b935050602061220e868287016120f8565b925050604061221f86828701612043565b9150509250925092565b60006020828403121561223f5761223e611eab565b5b600061224d848285016120f8565b91505092915050565b61225f81612022565b82525050565b600060208201905061227a6000830184612256565b92915050565b61228981611f3a565b811461229457600080fd5b50565b6000813590506122a681612280565b92915050565b600080604083850312156122c3576122c2611eab565b5b60006122d1858286016120f8565b92505060206122e285828601612297565b9150509250929050565b600067ffffffffffffffff82169050919050565b612309816122ec565b811461231457600080fd5b50565b60008135905061232681612300565b92915050565b600080fd5b600080fd5b600080fd5b60008083601f8401126123515761235061232c565b5b8235905067ffffffffffffffff81111561236e5761236d612331565b5b60208301915083600182028301111561238a57612389612336565b5b9250929050565b60008060008060008060a087890312156123ae576123ad611eab565b5b60006123bc89828a01612043565b96505060206123cd89828a016120f8565b95505060406123de89828a0161216e565b94505060606123ef89828a01612317565b935050608087013567ffffffffffffffff8111156124105761240f611eb0565b5b61241c89828a0161233b565b92509250509295509295509295565b600080fd5b7f4e487b7100000000000000000000000000000000000000000000000000000000600052604160045260246000fd5b61246882611fb6565b810181811067ffffffffffffffff8211171561248757612486612430565b5b80604052505050565b600061249a611ea1565b90506124a6828261245f565b919050565b600067ffffffffffffffff8211156124c6576124c5612430565b5b6124cf82611fb6565b9050602081019050919050565b82818337600083830152505050565b60006124fe6124f9846124ab565b612490565b90508281526020810184848401111561251a5761251961242b565b5b6125258482856124dc565b509392505050565b600082601f8301126125425761254161232c565b5b81356125528482602086016124eb565b91505092915050565b6000806000806080858703121561257557612574611eab565b5b6000612583878288016120f8565b9450506020612594878288016120f8565b93505060406125a587828801612043565b925050606085013567ffffffffffffffff8111156125c6576125c5611eb0565b5b6125d28782880161252d565b91505092959194509250565b6125e7816122ec565b82525050565b600060208201905061260260008301846125de565b92915050565b6000806040838503121561261f5761261e611eab565b5b600061262d858286016120f8565b925050602061263e858286016120f8565b9150509250929050565b7f4e487b7100000000000000000000000000000000000000000000000000000000600052602260045260246000fd5b6000600282049050600182168061268f57607f821691505b6020821081036126a2576126a1612648565b5b50919050565b60006060820190506126bd60008301866120b7565b6126ca6020830185612256565b6126d760408301846120b7565b949350505050565b600082825260208201905092915050565b60006126fc83856126df565b93506127098385846124dc565b61271283611fb6565b840190509392505050565b600060408201905061273260008301866125de565b81810360208301526127458184866126f0565b9050949350505050565b600081905092915050565b600061276582611f70565b61276f818561274f565b935061277f818560208601611f8c565b80840191505092915050565b6000612797828561275a565b91506127a3828461275a565b91508190509392505050565b7f4e6f74206f776e6572206e6f7220617070726f76656420666f7220746f6b656e600082015250565b60006127e5602083611f7b565b91506127f0826127af565b602082019050919050565b60006020820190508181036000830152612814816127d8565b9050919050565b600081519050919050565b60006128318261281b565b61283b81856126df565b935061284b818560208601611f8c565b61285481611fb6565b840191505092915050565b600060808201905061287460008301876120b7565b61288160208301866120b7565b61288e6040830185612256565b81810360608301526128a08184612826565b905095945050505050565b6000815190506128ba81611ee1565b92915050565b6000602082840312156128d6576128d5611eab565b5b60006128e4848285016128ab565b91505092915050565b7f4e487b7100000000000000000000000000000000000000000000000000000000600052601260045260246000fd5b600060408201905061293160008301856120b7565b61293e6020830184612256565b939250505056fea26469706673582212207fff62f2e107cd84a18623912120131d9df14789d2728f50dba54585b6ee607164736f6c634300081e0033",
  "linkReferences": {},
  "deployedLinkReferences": {}
}