{
  "_format": "hh-sol-artifact-1",
  "contractName": "TokenGatedDAO",
  "sourceName": "contracts/TokenGatedDAO.sol",
  "abi": [
    {
      "inputs": [
        {
          "internalType": "address",
          "name": "nft_",
          "type": "address"
        },
        {
          "internalType": "bytes32",
          "name": "proposerRole",
          "type": "bytes32"
        },
        {
          "internalType": "bytes32",
          "name": "voterRole",
          "type": "bytes32"
        }
      ],
      "stateMutability": "nonpayable",
      "type": "constructor"
    },
    {
      "anonymous": false,
      "inputs": [
        {
          "indexed": true,
          "internalType": "uint256",
          "name": "proposalId",
          "type": "uint256"
        },
        {
          "indexed": false,
          "internalType": "bool",
          "name": "passed",
          "type": "bool"
        }
      ],
      "name": "Executed",
      "type": "event"
    },
    {
      "anonymous": false,
      "inputs": [
        {
          "indexed": true,
          "internalType": "uint256",
          "name": "proposalId",
          "type": "uint256"
        },
        {
          "indexed": true,
          "internalType": "address",
          "name": "proposer",
          "type": "address"
        },
        {
          "indexed": false,
          "internalType": "string",
          "name": "description",
          "type": "string"
        },
        {
          "indexed": false,
          "internalType": "uint64",
          "name": "deadline",
          "type": "uint64"
        }
      ],
      "name": "ProposalCreated",
      "type": "event"
    },
    {
      "anonymous": false,
      "inputs": [
        {
          "indexed": true,
          "internalType": "uint256",
          "name": "proposalId",
          "type": "uint256"
        },
        {
          "indexed": true,
          "internalType": "address",
          "name": "voter",
          "type": "address"
        },
        {
          "indexed": false,
          "internalType": "bool",
          "name": "support",
          "type": "bool"
        },
        {
          "indexed": false,
          "internalType": "uint256",
          "name": "weight",
          "type": "uint256"
        }
      ],
      "name": "Voted",
      "type": "event"
    },
    {
      "inputs": [],
      "name": "PROPOSER_ROLE",
      "outputs": [
        {
          "internalType": "bytes32",
          "name": "",
          "type": "bytes32"
        }
      ],
      "stateMutability": "view",
      "type": "function"
    },
    {
      "inputs": [],
      "name": "VOTER_ROLE",
      "outputs": [
        {
          "internalType": "bytes32",
          "name": "",
          "type": "bytes32"
        }
      ],
      "stateMutability": "view",
      "type": "function"
    },
    {
      "inputs": [
        {
          "internalType": "uint256",
          "name": "proposalId",
          "type": "uint256"
        }
      ],
      "name": "execute",
      "outputs": [],
      "stateMutability": "nonpayable",
      "type": "function"
    },
    {
      "inputs": [
        {
          "internalType": "uint256",
          "name": "proposalId",
          "type": "uint256"
        }
      ],
      "name": "getProposal",
      "outputs": [
        {
          "components": [
            {
              "internalType": "string",
              "name": "description",
              "type": "string"
            },
            {
              "internalType": "uint256",
              "name": "forVotes",
              "type": "uint256"
            },
            {
              "internalType": "uint256",
              "name": "againstVotes",
              "type": "uint256"
            },
            {
              "internalType": "uint64",
              "name": "deadline",
              "type": "uint64"
            },
            {
              "internalType": "bool",
              "name": "executed",
              "type": "bool"
            },
            {
              "internalType": "address",
              "name": "proposer",
              "type": "address"
            }
          ],
          "internalType": "struct TokenGatedDAO.Proposal",
          "name": "",
          "type": "tuple"
        }
      ],
      "stateMutability": "view",
      "type": "function"
    },
    {
      "inputs": [
        {
          "internalType": "uint256",
          "name": "",
          "type": "uint256"
        },
        {
          "internalType": "address",
          "name": "",
          "type": "address"
        }
      ],
      "name": "hasVoted",
      "outputs": [
        {
          "internalType": "bool",
          "name": "",
          "type": "bool"
        }
      ],
      "stateMutability": "view",
      "type": "function"
    },
    {
      "inputs": [],
      "name": "nft",
      "outputs": [
        {
          "internalType": "contract IERC7432",
          "name": "",
          "type": "address"
        }
      ],
      "stateMutability": "view",
      "type": "function"
    },
    {
      "inputs": [],
      "name": "proposalCount",
      "outputs": [
        {
          "internalType": "uint256",
          "name": "",
          "type": "uint256"
        }
      ],
      "stateMutability": "view",
      "type": "function"
    },
    {
      "inputs": [
        {
          "internalType": "uint256",
          "name": "",
          "type": "uint256"
        }
      ],
      "name": "proposals",
      "outputs": [
        {
          "internalType": "string",
          "name": "description",
          "type": "string"
        },
        {
          "internalType": "uint256",
          "name": "forVotes",
          "type": "uint256"
        },
        {
          "internalType": "uint256",
          "name": "againstVotes",
          "type": "uint256"
        },
        {
          "internalType": "uint64",
          "name": "deadline",
          "type": "uint64"
        },
        {
          "internalType": "bool",
          "name": "executed",
          "type": "bool"
        },
        {
          "internalType": "address",
          "name": "proposer",
          "type": "address"
        }
      ],
      "stateMutability": "view",
      "type": "function"
    },
    {
      "inputs": [
        {
          "internalType": "uint256",
          "name": "tokenId",
          "type": "uint256"
        },
        {
          "internalType": "string",
          "name": "description",
          "type": "string"
        },
        {
          "internalType": "uint64",
          "name": "votingPeriod",
          "type": "uint64"
        }
      ],
      "name": "propose",
      "outputs": [
        {
          "internalType": "uint256",
          "name": "id",
          "type": "uint256"
        }
      ],
      "stateMutability": "nonpayable",
      "type": "function"
    },
    {
      "inputs": [
        {
          "internalType": "uint256",
          "name": "proposalId",
          "type": "uint256"
        },
        {
          "internalType": "uint256",
          "name": "tokenId",
          "type": "uint256"
        },
        {
          "internalType": "bool",
          "name": "support",
          "type": "bool"
        }
      ],
      "name": "vote",
      "outputs": [],
      "stateMutability": "nonpayable",
      "type": "function"
    }
  ],
  "bytecode": "0x60e060405234801561001057600080fd5b50604051611f69380380611f6983398181016040528101906100329190610186565b600073ffffffffffffffffffffffffffffffffffffffff168373ffffffffffffffffffffffffffffffffffffffff16036100a1576040517f08c379a000000000000000000000000000000000000000000000000000000000815260040161009890610236565b60405180910390fd5b8273ffffffffffffffffffffffffffffffffffffffff1660808173ffffffffffffffffffffffffffffffffffffffff16815250508160a081815250508060c08181525050505050610256565b600080fd5b600073ffffffffffffffffffffffffffffffffffffffff82169050919050565b600061011d826100f2565b9050919050565b61012d81610112565b811461013857600080fd5b50565b60008151905061014a81610124565b92915050565b6000819050919050565b61016381610150565b811461016e57600080fd5b50565b6000815190506101808161015a565b92915050565b60008060006060848603121561019f5761019e6100ed565b5b60006101ad8682870161013b565b93505060206101be86828701610171565b92505060406101cf86828701610171565b9150509250925092565b600082825260208201905092915050565b7f6e66742061646472657373207265717569726564000000000000000000000000600082015250565b60006102206014836101d9565b915061022b826101ea565b602082019050919050565b6000602082019050818103600083015261024f81610213565b9050919050565b60805160a05160c051611cc86102a16000396000818161088b0152610a730152600081816103fe0152610a4f01526000818161034e015281816103c0015261084d0152611cc86000f3fe608060405234801561001057600080fd5b506004361061009e5760003560e01c80638f61f4f5116100665780638f61f4f514610172578063a94015c814610190578063c7f758a8146101ae578063da35c664146101de578063fe0d94c1146101fc5761009e565b8063013cf08b146100a357806343859632146100d857806347ccca02146101085780635fd7be16146101265780636a18ff7a14610156575b600080fd5b6100bd60048036038101906100b89190610e45565b610218565b6040516100cf96959493929190610f90565b60405180910390f35b6100f260048036038101906100ed9190611024565b61031d565b6040516100ff9190611064565b60405180910390f35b61011061034c565b60405161011d91906110de565b60405180910390f35b610140600480360381019061013b919061118a565b610370565b60405161014d91906111fe565b60405180910390f35b610170600480360381019061016b9190611245565b6106cd565b005b61017a610a4d565b60405161018791906112b1565b60405180910390f35b610198610a71565b6040516101a591906112b1565b60405180910390f35b6101c860048036038101906101c39190610e45565b610a95565b6040516101d591906113db565b60405180910390f35b6101e6610c0b565b6040516101f391906111fe565b60405180910390f35b61021660048036038101906102119190610e45565b610c11565b005b600160205280600052604060002060009150905080600001805461023b9061142c565b80601f01602080910402602001604051908101604052809291908181526020018280546102679061142c565b80156102b45780601f10610289576101008083540402835291602001916102b4565b820191906000526020600020905b81548152906001019060200180831161029757829003601f168201915b5050505050908060010154908060020154908060030160009054906101000a900467ffffffffffffffff16908060030160089054906101000a900460ff16908060030160099054906101000a900473ffffffffffffffffffffffffffffffffffffffff16905086565b60026020528160005260406000206020528060005260406000206000915091509054906101000a900460ff1681565b7f000000000000000000000000000000000000000000000000000000000000000081565b6000808267ffffffffffffffff16116103be576040517f08c379a00000000000000000000000000000000000000000000000000000000081526004016103b5906114a9565b60405180910390fd5b7f000000000000000000000000000000000000000000000000000000000000000073ffffffffffffffffffffffffffffffffffffffff16631ca5b57186337f00000000000000000000000000000000000000000000000000000000000000006040518463ffffffff1660e01b815260040161043b939291906114c9565b602060405180830381865afa158015610458573d6000803e3d6000fd5b505050506040513d601f19601f8201168201806040525081019061047c9190611515565b6104bb576040517f08c379a00000000000000000000000000000000000000000000000000000000081526004016104b29061158e565b60405180910390fd5b60008081546104c9906115dd565b91905081905590506040518060c0016040528085858080601f016020809104026020016040519081016040528093929190818152602001838380828437600081840152601f19601f820116905080830192505050505050508152602001600081526020016000815260200183426105409190611625565b67ffffffffffffffff1681526020016000151581526020013373ffffffffffffffffffffffffffffffffffffffff1681525060016000838152602001908152602001600020600082015181600001908161059a9190611832565b50602082015181600101556040820151816002015560608201518160030160006101000a81548167ffffffffffffffff021916908367ffffffffffffffff16021790555060808201518160030160086101000a81548160ff02191690831515021790555060a08201518160030160096101000a81548173ffffffffffffffffffffffffffffffffffffffff021916908373ffffffffffffffffffffffffffffffffffffffff1602179055509050503373ffffffffffffffffffffffffffffffffffffffff16817f553be4d74bc63ce955614b229c8eaa4ad7f7f1f38840da15f3604b2fca49c6a886866001600087815260200190815260200160002060030160009054906101000a900467ffffffffffffffff166040516106bd93929190611940565b60405180910390a3949350505050565b600060016000858152602001908152602001600020905060008160030160009054906101000a900467ffffffffffffffff1667ffffffffffffffff1603610749576040517f08c379a0000000000000000000000000000000000000000000000000000000008152600401610740906119be565b60405180910390fd5b8060030160009054906101000a900467ffffffffffffffff1667ffffffffffffffff1642106107ad576040517f08c379a00000000000000000000000000000000000000000000000000000000081526004016107a490611a2a565b60405180910390fd5b6002600085815260200190815260200160002060003373ffffffffffffffffffffffffffffffffffffffff1673ffffffffffffffffffffffffffffffffffffffff16815260200190815260200160002060009054906101000a900460ff161561084b576040517f08c379a000000000000000000000000000000000000000000000000000000000815260040161084290611a96565b60405180910390fd5b7f000000000000000000000000000000000000000000000000000000000000000073ffffffffffffffffffffffffffffffffffffffff16631ca5b57184337f00000000000000000000000000000000000000000000000000000000000000006040518463ffffffff1660e01b81526004016108c8939291906114c9565b602060405180830381865afa1580156108e5573d6000803e3d6000fd5b505050506040513d601f19601f820116820180604052508101906109099190611515565b610948576040517f08c379a000000000000000000000000000000000000000000000000000000000815260040161093f90611b02565b60405180910390fd5b60016002600086815260200190815260200160002060003373ffffffffffffffffffffffffffffffffffffffff1673ffffffffffffffffffffffffffffffffffffffff16815260200190815260200160002060006101000a81548160ff02191690831515021790555081156109d85760018160010160008282546109cc9190611b22565b925050819055506109f5565b60018160020160008282546109ed9190611b22565b925050819055505b3373ffffffffffffffffffffffffffffffffffffffff16847f7c2de587c00d75474a0c6c6fa96fd3b45dc974cd4e8a75f712bb84c950dce1b5846001604051610a3f929190611b91565b60405180910390a350505050565b7f000000000000000000000000000000000000000000000000000000000000000081565b7f000000000000000000000000000000000000000000000000000000000000000081565b610a9d610dad565b600160008381526020019081526020016000206040518060c0016040529081600082018054610acb9061142c565b80601f0160208091040260200160405190810160405280929190818152602001828054610af79061142c565b8015610b445780601f10610b1957610100808354040283529160200191610b44565b820191906000526020600020905b815481529060010190602001808311610b2757829003601f168201915b5050505050815260200160018201548152602001600282015481526020016003820160009054906101000a900467ffffffffffffffff1667ffffffffffffffff1667ffffffffffffffff1681526020016003820160089054906101000a900460ff161515151581526020016003820160099054906101000a900473ffffffffffffffffffffffffffffffffffffffff1673ffffffffffffffffffffffffffffffffffffffff1673ffffffffffffffffffffffffffffffffffffffff16815250509050919050565b60005481565b600060016000838152602001908152602001600020905060008160030160009054906101000a900467ffffffffffffffff1667ffffffffffffffff1603610c8d576040517f08c379a0000000000000000000000000000000000000000000000000000000008152600401610c84906119be565b60405180910390fd5b8060030160009054906101000a900467ffffffffffffffff1667ffffffffffffffff16421015610cf2576040517f08c379a0000000000000000000000000000000000000000000000000000000008152600401610ce990611c06565b60405180910390fd5b8060030160089054906101000a900460ff1615610d44576040517f08c379a0000000000000000000000000000000000000000000000000000000008152600401610d3b90611c72565b60405180910390fd5b60018160030160086101000a81548160ff021916908315150217905550600081600201548260010154119050827ffa9788a6b2f6e96ab2d85a5b4ed3668e72b91e06c5eec6b3e87afd95fe53686382604051610da09190611064565b60405180910390a2505050565b6040518060c00160405280606081526020016000815260200160008152602001600067ffffffffffffffff168152602001600015158152602001600073ffffffffffffffffffffffffffffffffffffffff1681525090565b600080fd5b600080fd5b6000819050919050565b610e2281610e0f565b8114610e2d57600080fd5b50565b600081359050610e3f81610e19565b92915050565b600060208284031215610e5b57610e5a610e05565b5b6000610e6984828501610e30565b91505092915050565b600081519050919050565b600082825260208201905092915050565b60005b83811015610eac578082015181840152602081019050610e91565b60008484015250505050565b6000601f19601f8301169050919050565b6000610ed482610e72565b610ede8185610e7d565b9350610eee818560208601610e8e565b610ef781610eb8565b840191505092915050565b610f0b81610e0f565b82525050565b600067ffffffffffffffff82169050919050565b610f2e81610f11565b82525050565b60008115159050919050565b610f4981610f34565b82525050565b600073ffffffffffffffffffffffffffffffffffffffff82169050919050565b6000610f7a82610f4f565b9050919050565b610f8a81610f6f565b82525050565b600060c0820190508181036000830152610faa8189610ec9565b9050610fb96020830188610f02565b610fc66040830187610f02565b610fd36060830186610f25565b610fe06080830185610f40565b610fed60a0830184610f81565b979650505050505050565b61100181610f6f565b811461100c57600080fd5b50565b60008135905061101e81610ff8565b92915050565b6000806040838503121561103b5761103a610e05565b5b600061104985828601610e30565b925050602061105a8582860161100f565b9150509250929050565b60006020820190506110796000830184610f40565b92915050565b6000819050919050565b60006110a461109f61109a84610f4f565b61107f565b610f4f565b9050919050565b60006110b682611089565b9050919050565b60006110c8826110ab565b9050919050565b6110d8816110bd565b82525050565b60006020820190506110f360008301846110cf565b92915050565b600080fd5b600080fd5b600080fd5b60008083601f84011261111e5761111d6110f9565b5b8235905067ffffffffffffffff81111561113b5761113a6110fe565b5b60208301915083600182028301111561115757611156611103565b5b9250929050565b61116781610f11565b811461117257600080fd5b50565b6000813590506111848161115e565b92915050565b600080600080606085870312156111a4576111a3610e05565b5b60006111b287828801610e30565b945050602085013567ffffffffffffffff8111156111d3576111d2610e0a565b5b6111df87828801611108565b935093505060406111f287828801611175565b91505092959194509250565b60006020820190506112136000830184610f02565b92915050565b61122281610f34565b811461122d57600080fd5b50565b60008135905061123f81611219565b92915050565b60008060006060848603121561125e5761125d610e05565b5b600061126c86828701610e30565b935050602061127d86828701610e30565b925050604061128e86828701611230565b9150509250925092565b6000819050919050565b6112ab81611298565b82525050565b60006020820190506112c660008301846112a2565b92915050565b600082825260208201905092915050565b60006112e882610e72565b6112f281856112cc565b9350611302818560208601610e8e565b61130b81610eb8565b840191505092915050565b61131f81610e0f565b82525050565b61132e81610f11565b82525050565b61133d81610f34565b82525050565b61134c81610f6f565b82525050565b600060c083016000830151848203600086015261136f82826112dd565b91505060208301516113846020860182611316565b5060408301516113976040860182611316565b5060608301516113aa6060860182611325565b5060808301516113bd6080860182611334565b5060a08301516113d060a0860182611343565b508091505092915050565b600060208201905081810360008301526113f58184611352565b905092915050565b7f4e487b7100000000000000000000000000000000000000000000000000000000600052602260045260246000fd5b6000600282049050600182168061144457607f821691505b602082108103611457576114566113fd565b5b50919050565b7f766f74696e67506572696f643d30000000000000000000000000000000000000600082015250565b6000611493600e83610e7d565b915061149e8261145d565b602082019050919050565b600060208201905081810360008301526114c281611486565b9050919050565b60006060820190506114de6000830186610f02565b6114eb6020830185610f81565b6114f860408301846112a2565b949350505050565b60008151905061150f81611219565b92915050565b60006020828403121561152b5761152a610e05565b5b600061153984828501611500565b91505092915050565b7f6d697373696e672050524f504f5345525f524f4c450000000000000000000000600082015250565b6000611578601583610e7d565b915061158382611542565b602082019050919050565b600060208201905081810360008301526115a78161156b565b9050919050565b7f4e487b7100000000000000000000000000000000000000000000000000000000600052601160045260246000fd5b60006115e882610e0f565b91507fffffffffffffffffffffffffffffffffffffffffffffffffffffffffffffffff820361161a576116196115ae565b5b600182019050919050565b600061163082610f11565b915061163b83610f11565b9250828201905067ffffffffffffffff81111561165b5761165a6115ae565b5b92915050565b7f4e487b7100000000000000000000000000000000000000000000000000000000600052604160045260246000fd5b60008190508160005260206000209050919050565b60006020601f8301049050919050565b600082821b905092915050565b6000600883026116f27fffffffffffffffffffffffffffffffffffffffffffffffffffffffffffffffff826116b5565b6116fc86836116b5565b95508019841693508086168417925050509392505050565b600061172f61172a61172584610e0f565b61107f565b610e0f565b9050919050565b6000819050919050565b61174983611714565b61175d61175582611736565b8484546116c2565b825550505050565b600090565b611772611765565b61177d818484611740565b505050565b5b818110156117a15761179660008261176a565b600181019050611783565b5050565b601f8211156117e6576117b781611690565b6117c0846116a5565b810160208510156117cf578190505b6117e36117db856116a5565b830182611782565b50505b505050565b600082821c905092915050565b6000611809600019846008026117eb565b1980831691505092915050565b600061182283836117f8565b9150826002028217905092915050565b61183b82610e72565b67ffffffffffffffff81111561185457611853611661565b5b61185e825461142c565b6118698282856117a5565b600060209050601f83116001811461189c576000841561188a578287015190505b6118948582611816565b8655506118fc565b601f1984166118aa86611690565b60005b828110156118d2578489015182556001820191506020850194506020810190506118ad565b868310156118ef57848901516118eb601f8916826117f8565b8355505b6001600288020188555050505b505050505050565b82818337600083830152505050565b600061191f8385610e7d565b935061192c838584611904565b61193583610eb8565b840190509392505050565b6000604082019050818103600083015261195b818587611913565b905061196a6020830184610f25565b949350505050565b7f70726f706f73616c206e6f7420666f756e640000000000000000000000000000600082015250565b60006119a8601283610e7d565b91506119b382611972565b602082019050919050565b600060208201905081810360008301526119d78161199b565b9050919050565b7f766f74696e6720656e6465640000000000000000000000000000000000000000600082015250565b6000611a14600c83610e7d565b9150611a1f826119de565b602082019050919050565b60006020820190508181036000830152611a4381611a07565b9050919050565b7f616c726561647920766f74656400000000000000000000000000000000000000600082015250565b6000611a80600d83610e7d565b9150611a8b82611a4a565b602082019050919050565b60006020820190508181036000830152611aaf81611a73565b9050919050565b7f6d697373696e6720564f5445525f524f4c450000000000000000000000000000600082015250565b6000611aec601283610e7d565b9150611af782611ab6565b602082019050919050565b60006020820190508181036000830152611b1b81611adf565b9050919050565b6000611b2d82610e0f565b9150611b3883610e0f565b9250828201905080821115611b5057611b4f6115ae565b5b92915050565b6000819050919050565b6000611b7b611b76611b7184611b56565b61107f565b610e0f565b9050919050565b611b8b81611b60565b82525050565b6000604082019050611ba66000830185610f40565b611bb36020830184611b82565b9392505050565b7f766f74696e67206e6f7420656e64656400000000000000000000000000000000600082015250565b6000611bf0601083610e7d565b9150611bfb82611bba565b602082019050919050565b60006020820190508181036000830152611c1f81611be3565b9050919050565b7f616c726561647920657865637574656400000000000000000000000000000000600082015250565b6000611c5c601083610e7d565b9150611c6782611c26565b602082019050919050565b60006020820190508181036000830152611c8b81611c4f565b905091905056fea2646970667358221220bfabf710a2a52b666292bd8f88ecf1363daa91a61fb321c202e4641d6e36f78b64736f6c634300081e0033",
  "linkReferences": {},
  "deployedLinkReferences": {}
}