{
  "_format": "hh-sol-artifact-1",
  "contractName": "Web3BridgeGarageAccess",
  "sourceName": "contracts/Lock.sol",
  "abi": [
    {
      "inputs": [
        {
          "internalType": "address",
          "name": "_wallet",
          "type": "address"
        },
        {
          "internalType": "string",
          "name": "_name",
          "type": "string"
        },
        {
          "internalType": "enum Web3BridgeGarageAccess.Role",
          "name": "_role",
          "type": "uint8"
        },
        {
          "internalType": "bool",
          "name": "_isEmployed",
          "type": "bool"
        }
      ],
      "name": "addEmployee",
      "outputs": [],
      "stateMutability": "nonpayable",
      "type": "function"
    },
    {
      "inputs": [
        {
          "internalType": "uint256",
          "name": "",
          "type": "uint256"
        }
      ],
      "name": "allEmployees",
      "outputs": [
        {
          "internalType": "string",
          "name": "name",
          "type": "string"
        },
        {
          "internalType": "enum Web3BridgeGarageAccess.Role",
          "name": "role",
          "type": "uint8"
        },
        {
          "internalType": "bool",
          "name": "isEmployed",
          "type": "bool"
        },
        {
          "internalType": "address",
          "name": "wallet",
          "type": "address"
        }
      ],
      "stateMutability": "view",
      "type": "function"
    },
    {
      "inputs": [
        {
          "internalType": "address",
          "name": "_wallet",
          "type": "address"
        }
      ],
      "name": "canAccessGarage",
      "outputs": [
        {
          "internalType": "bool",
          "name": "",
          "type": "bool"
        }
      ],
      "stateMutability": "view",
      "type": "function"
    },
    {
      "inputs": [
        {
          "internalType": "address",
          "name": "",
          "type": "address"
        }
      ],
      "name": "employees",
      "outputs": [
        {
          "internalType": "string",
          "name": "name",
          "type": "string"
        },
        {
          "internalType": "enum Web3BridgeGarageAccess.Role",
          "name": "role",
          "type": "uint8"
        },
        {
          "internalType": "bool",
          "name": "isEmployed",
          "type": "bool"
        },
        {
          "internalType": "address",
          "name": "wallet",
          "type": "address"
        }
      ],
      "stateMutability": "view",
      "type": "function"
    },
    {
      "inputs": [],
      "name": "getAllEmployees",
      "outputs": [
        {
          "components": [
            {
              "internalType": "string",
              "name": "name",
              "type": "string"
            },
            {
              "internalType": "enum Web3BridgeGarageAccess.Role",
              "name": "role",
              "type": "uint8"
            },
            {
              "internalType": "bool",
              "name": "isEmployed",
              "type": "bool"
            },
            {
              "internalType": "address",
              "name": "wallet",
              "type": "address"
            }
          ],
          "internalType": "struct Web3BridgeGarageAccess.Employee[]",
          "name": "",
          "type": "tuple[]"
        }
      ],
      "stateMutability": "view",
      "type": "function"
    },
    {
      "inputs": [
        {
          "internalType": "address",
          "name": "_wallet",
          "type": "address"
        }
      ],
      "name": "getEmployee",
      "outputs": [
        {
          "components": [
            {
              "internalType": "string",
              "name": "name",
              "type": "string"
            },
            {
              "internalType": "enum Web3BridgeGarageAccess.Role",
              "name": "role",
              "type": "uint8"
            },
            {
              "internalType": "bool",
              "name": "isEmployed",
              "type": "bool"
            },
            {
              "internalType": "address",
              "name": "wallet",
              "type": "address"
            }
          ],
          "internalType": "struct Web3BridgeGarageAccess.Employee",
          "name": "",
          "type": "tuple"
        }
      ],
      "stateMutability": "view",
      "type": "function"
    }
  ],
  "bytecode": "0x6080604052348015600f57600080fd5b5061175c8061001f6000396000f3fe608060405234801561001057600080fd5b50600436106100625760003560e01c806332648e091461006757806385340eb4146100975780639a3416ed146100ca578063b24e34c8146100e6578063d067894714610116578063e3366fed14610149575b600080fd5b610081600480360381019061007c9190610cfc565b610167565b60405161008e9190610ebd565b60405180910390f35b6100b160048036038101906100ac9190610f15565b6102fd565b6040516100c19493929190610fb9565b60405180910390f35b6100e460048036038101906100df919061118b565b6103ff565b005b61010060048036038101906100fb9190610cfc565b61075e565b60405161010d919061120e565b60405180910390f35b610130600480360381019061012b9190610cfc565b6109a9565b6040516101409493929190610fb9565b60405180910390f35b610151610a9b565b60405161015e919061134e565b60405180910390f35b61016f610c38565b6000808373ffffffffffffffffffffffffffffffffffffffff1673ffffffffffffffffffffffffffffffffffffffff1681526020019081526020016000206040518060800160405290816000820180546101c89061139f565b80601f01602080910402602001604051908101604052809291908181526020018280546101f49061139f565b80156102415780601f1061021657610100808354040283529160200191610241565b820191906000526020600020905b81548152906001019060200180831161022457829003601f168201915b505050505081526020016001820160009054906101000a900460ff16600581111561026f5761026e610db9565b5b600581111561028157610280610db9565b5b81526020016001820160019054906101000a900460ff161515151581526020016001820160029054906101000a900473ffffffffffffffffffffffffffffffffffffffff1673ffffffffffffffffffffffffffffffffffffffff1673ffffffffffffffffffffffffffffffffffffffff16815250509050919050565b6001818154811061030d57600080fd5b90600052602060002090600202016000915090508060000180546103309061139f565b80601f016020809104026020016040519081016040528092919081815260200182805461035c9061139f565b80156103a95780601f1061037e576101008083540402835291602001916103a9565b820191906000526020600020905b81548152906001019060200180831161038c57829003601f168201915b5050505050908060010160009054906101000a900460ff16908060010160019054906101000a900460ff16908060010160029054906101000a900473ffffffffffffffffffffffffffffffffffffffff16905084565b600073ffffffffffffffffffffffffffffffffffffffff168473ffffffffffffffffffffffffffffffffffffffff160361046e576040517f08c379a00000000000000000000000000000000000000000000000000000000081526004016104659061141c565b60405180910390fd5b600073ffffffffffffffffffffffffffffffffffffffff166000808673ffffffffffffffffffffffffffffffffffffffff1673ffffffffffffffffffffffffffffffffffffffff16815260200190815260200160002060010160029054906101000a900473ffffffffffffffffffffffffffffffffffffffff1673ffffffffffffffffffffffffffffffffffffffff161461053e576040517f08c379a000000000000000000000000000000000000000000000000000000000815260040161053590611488565b60405180910390fd5b6000604051806080016040528085815260200184600581111561056457610563610db9565b5b815260200183151581526020018673ffffffffffffffffffffffffffffffffffffffff168152509050806000808773ffffffffffffffffffffffffffffffffffffffff1673ffffffffffffffffffffffffffffffffffffffff16815260200190815260200160002060008201518160000190816105e19190611654565b5060208201518160010160006101000a81548160ff0219169083600581111561060d5761060c610db9565b5b021790555060408201518160010160016101000a81548160ff02191690831515021790555060608201518160010160026101000a81548173ffffffffffffffffffffffffffffffffffffffff021916908373ffffffffffffffffffffffffffffffffffffffff160217905550905050600181908060018154018082558091505060019003906000526020600020906002020160009091909190915060008201518160000190816106bd9190611654565b5060208201518160010160006101000a81548160ff021916908360058111156106e9576106e8610db9565b5b021790555060408201518160010160016101000a81548160ff02191690831515021790555060608201518160010160026101000a81548173ffffffffffffffffffffffffffffffffffffffff021916908373ffffffffffffffffffffffffffffffffffffffff16021790555050505050505050565b6000806000808473ffffffffffffffffffffffffffffffffffffffff1673ffffffffffffffffffffffffffffffffffffffff1681526020019081526020016000206040518060800160405290816000820180546107ba9061139f565b80601f01602080910402602001604051908101604052809291908181526020018280546107e69061139f565b80156108335780601f1061080857610100808354040283529160200191610833565b820191906000526020600020905b81548152906001019060200180831161081657829003601f168201915b505050505081526020016001820160009054906101000a900460ff16600581111561086157610860610db9565b5b600581111561087357610872610db9565b5b81526020016001820160019054906101000a900460ff161515151581526020016001820160029054906101000a900473ffffffffffffffffffffffffffffffffffffffff1673ffffffffffffffffffffffffffffffffffffffff1673ffffffffffffffffffffffffffffffffffffffff1681525050905080604001516108fd5760009150506109a4565b6000600581111561091157610910610db9565b5b8160200151600581111561092857610927610db9565b5b148061095c57506001600581111561094357610942610db9565b5b8160200151600581111561095a57610959610db9565b5b145b8061098f57506002600581111561097657610975610db9565b5b8160200151600581111561098d5761098c610db9565b5b145b1561099e5760019150506109a4565b60009150505b919050565b60006020528060005260406000206000915090508060000180546109cc9061139f565b80601f01602080910402602001604051908101604052809291908181526020018280546109f89061139f565b8015610a455780601f10610a1a57610100808354040283529160200191610a45565b820191906000526020600020905b815481529060010190602001808311610a2857829003601f168201915b5050505050908060010160009054906101000a900460ff16908060010160019054906101000a900460ff16908060010160029054906101000a900473ffffffffffffffffffffffffffffffffffffffff16905084565b60606001805480602002602001604051908101604052809291908181526020016000905b82821015610c2f5783829060005260206000209060020201604051806080016040529081600082018054610af29061139f565b80601f0160208091040260200160405190810160405280929190818152602001828054610b1e9061139f565b8015610b6b5780601f10610b4057610100808354040283529160200191610b6b565b820191906000526020600020905b815481529060010190602001808311610b4e57829003601f168201915b505050505081526020016001820160009054906101000a900460ff166005811115610b9957610b98610db9565b5b6005811115610bab57610baa610db9565b5b81526020016001820160019054906101000a900460ff161515151581526020016001820160029054906101000a900473ffffffffffffffffffffffffffffffffffffffff1673ffffffffffffffffffffffffffffffffffffffff1673ffffffffffffffffffffffffffffffffffffffff168152505081526020019060010190610abf565b50505050905090565b60405180608001604052806060815260200160006005811115610c5e57610c5d610db9565b5b8152602001600015158152602001600073ffffffffffffffffffffffffffffffffffffffff1681525090565b6000604051905090565b600080fd5b600080fd5b600073ffffffffffffffffffffffffffffffffffffffff82169050919050565b6000610cc982610c9e565b9050919050565b610cd981610cbe565b8114610ce457600080fd5b50565b600081359050610cf681610cd0565b92915050565b600060208284031215610d1257610d11610c94565b5b6000610d2084828501610ce7565b91505092915050565b600081519050919050565b600082825260208201905092915050565b60005b83811015610d63578082015181840152602081019050610d48565b60008484015250505050565b6000601f19601f8301169050919050565b6000610d8b82610d29565b610d958185610d34565b9350610da5818560208601610d45565b610dae81610d6f565b840191505092915050565b7f4e487b7100000000000000000000000000000000000000000000000000000000600052602160045260246000fd5b60068110610df957610df8610db9565b5b50565b6000819050610e0a82610de8565b919050565b6000610e1a82610dfc565b9050919050565b610e2a81610e0f565b82525050565b60008115159050919050565b610e4581610e30565b82525050565b610e5481610cbe565b82525050565b60006080830160008301518482036000860152610e778282610d80565b9150506020830151610e8c6020860182610e21565b506040830151610e9f6040860182610e3c565b506060830151610eb26060860182610e4b565b508091505092915050565b60006020820190508181036000830152610ed78184610e5a565b905092915050565b6000819050919050565b610ef281610edf565b8114610efd57600080fd5b50565b600081359050610f0f81610ee9565b92915050565b600060208284031215610f2b57610f2a610c94565b5b6000610f3984828501610f00565b91505092915050565b600082825260208201905092915050565b6000610f5e82610d29565b610f688185610f42565b9350610f78818560208601610d45565b610f8181610d6f565b840191505092915050565b610f9581610e0f565b82525050565b610fa481610e30565b82525050565b610fb381610cbe565b82525050565b60006080820190508181036000830152610fd38187610f53565b9050610fe26020830186610f8c565b610fef6040830185610f9b565b610ffc6060830184610faa565b95945050505050565b600080fd5b600080fd5b7f4e487b7100000000000000000000000000000000000000000000000000000000600052604160045260246000fd5b61104782610d6f565b810181811067ffffffffffffffff821117156110665761106561100f565b5b80604052505050565b6000611079610c8a565b9050611085828261103e565b919050565b600067ffffffffffffffff8211156110a5576110a461100f565b5b6110ae82610d6f565b9050602081019050919050565b82818337600083830152505050565b60006110dd6110d88461108a565b61106f565b9050828152602081018484840111156110f9576110f861100a565b5b6111048482856110bb565b509392505050565b600082601f83011261112157611120611005565b5b81356111318482602086016110ca565b91505092915050565b6006811061114757600080fd5b50565b6000813590506111598161113a565b92915050565b61116881610e30565b811461117357600080fd5b50565b6000813590506111858161115f565b92915050565b600080600080608085870312156111a5576111a4610c94565b5b60006111b387828801610ce7565b945050602085013567ffffffffffffffff8111156111d4576111d3610c99565b5b6111e08782880161110c565b93505060406111f18782880161114a565b925050606061120287828801611176565b91505092959194509250565b60006020820190506112236000830184610f9b565b92915050565b600081519050919050565b600082825260208201905092915050565b6000819050602082019050919050565b600060808301600083015184820360008601526112728282610d80565b91505060208301516112876020860182610e21565b50604083015161129a6040860182610e3c565b5060608301516112ad6060860182610e4b565b508091505092915050565b60006112c48383611255565b905092915050565b6000602082019050919050565b60006112e482611229565b6112ee8185611234565b93508360208202850161130085611245565b8060005b8581101561133c578484038952815161131d85826112b8565b9450611328836112cc565b925060208a01995050600181019050611304565b50829750879550505050505092915050565b6000602082019050818103600083015261136881846112d9565b905092915050565b7f4e487b7100000000000000000000000000000000000000000000000000000000600052602260045260246000fd5b600060028204905060018216806113b757607f821691505b6020821081036113ca576113c9611370565b5b50919050565b7f496e76616c696420616464726573730000000000000000000000000000000000600082015250565b6000611406600f83610f42565b9150611411826113d0565b602082019050919050565b60006020820190508181036000830152611435816113f9565b9050919050565b7f456d706c6f79656520616c726561647920657869737473000000000000000000600082015250565b6000611472601783610f42565b915061147d8261143c565b602082019050919050565b600060208201905081810360008301526114a181611465565b9050919050565b60008190508160005260206000209050919050565b60006020601f8301049050919050565b600082821b905092915050565b60006008830261150a7fffffffffffffffffffffffffffffffffffffffffffffffffffffffffffffffff826114cd565b61151486836114cd565b95508019841693508086168417925050509392505050565b6000819050919050565b600061155161154c61154784610edf565b61152c565b610edf565b9050919050565b6000819050919050565b61156b83611536565b61157f61157782611558565b8484546114da565b825550505050565b600090565b611594611587565b61159f818484611562565b505050565b5b818110156115c3576115b860008261158c565b6001810190506115a5565b5050565b601f821115611608576115d9816114a8565b6115e2846114bd565b810160208510156115f1578190505b6116056115fd856114bd565b8301826115a4565b50505b505050565b600082821c905092915050565b600061162b6000198460080261160d565b1980831691505092915050565b6000611644838361161a565b9150826002028217905092915050565b61165d82610d29565b67ffffffffffffffff8111156116765761167561100f565b5b611680825461139f565b61168b8282856115c7565b600060209050601f8311600181146116be57600084156116ac578287015190505b6116b68582611638565b86555061171e565b601f1984166116cc866114a8565b60005b828110156116f4578489015182556001820191506020850194506020810190506116cf565b86831015611711578489015161170d601f89168261161a565b8355505b6001600288020188555050505b50505050505056fea2646970667358221220184ae508c1fb39e088c8c889e6a7b8baaf3e70b087d69da6bc0aa52c9575771164736f6c634300081c0033",
  "linkReferences": {},
  "deployedLinkReferences": {}
}