{
  "_format": "hh-sol-artifact-1",
  "contractName": "PiggyFactory",
  "sourceName": "contracts/PiggyFactoryCreator.sol",
  "abi": [
    {
      "inputs": [],
      "stateMutability": "nonpayable",
      "type": "constructor"
    },
    {
      "inputs": [],
      "name": "BoxAlreadyMade",
      "type": "error"
    },
    {
      "anonymous": false,
      "inputs": [
        {
          "indexed": true,
          "internalType": "address",
          "name": "person",
          "type": "address"
        },
        {
          "indexed": false,
          "internalType": "address",
          "name": "box",
          "type": "address"
        }
      ],
      "name": "BoxMade",
      "type": "event"
    },
    {
      "inputs": [
        {
          "internalType": "address",
          "name": "person",
          "type": "address"
        }
      ],
      "name": "findBox",
      "outputs": [
        {
          "internalType": "address",
          "name": "",
          "type": "address"
        }
      ],
      "stateMutability": "view",
      "type": "function"
    },
    {
      "inputs": [],
      "name": "makeBox",
      "outputs": [],
      "stateMutability": "nonpayable",
      "type": "function"
    },
    {
      "inputs": [
        {
          "internalType": "address",
          "name": "",
          "type": "address"
        }
      ],
      "name": "personToBox",
      "outputs": [
        {
          "internalType": "address",
          "name": "",
          "type": "address"
        }
      ],
      "stateMutability": "view",
      "type": "function"
    },
    {
      "inputs": [],
      "name": "platform",
      "outputs": [
        {
          "internalType": "address",
          "name": "",
          "type": "address"
        }
      ],
      "stateMutability": "view",
      "type": "function"
    }
  ],
  "bytecode": "0x6080604052348015600f57600080fd5b50336000806101000a81548173ffffffffffffffffffffffffffffffffffffffff021916908373ffffffffffffffffffffffffffffffffffffffff16021790555061197f8061005f6000396000f3fe608060405234801561001057600080fd5b506004361061004c5760003560e01c80631f404595146100515780633426a2c2146100815780634701ba491461008b5780634bde38c8146100bb575b600080fd5b61006b600480360381019061006691906103f7565b6100d9565b6040516100789190610433565b60405180910390f35b610089610142565b005b6100a560048036038101906100a091906103f7565b610330565b6040516100b29190610433565b60405180910390f35b6100c3610363565b6040516100d09190610433565b60405180910390f35b6000600160008373ffffffffffffffffffffffffffffffffffffffff1673ffffffffffffffffffffffffffffffffffffffff16815260200190815260200160002060009054906101000a900473ffffffffffffffffffffffffffffffffffffffff169050919050565b600073ffffffffffffffffffffffffffffffffffffffff16600160003373ffffffffffffffffffffffffffffffffffffffff1673ffffffffffffffffffffffffffffffffffffffff16815260200190815260200160002060009054906101000a900473ffffffffffffffffffffffffffffffffffffffff1673ffffffffffffffffffffffffffffffffffffffff1614610207576040517f9d45b47600000000000000000000000000000000000000000000000000000000815260040160405180910390fd5b60003360008054906101000a900473ffffffffffffffffffffffffffffffffffffffff1660405161023790610387565b61024292919061044e565b604051809103906000f08015801561025e573d6000803e3d6000fd5b50905080600160003373ffffffffffffffffffffffffffffffffffffffff1673ffffffffffffffffffffffffffffffffffffffff16815260200190815260200160002060006101000a81548173ffffffffffffffffffffffffffffffffffffffff021916908373ffffffffffffffffffffffffffffffffffffffff1602179055503373ffffffffffffffffffffffffffffffffffffffff167f5220946db5dd6fe088a55cd0bfbb3875836c59990a33070bf2c8f8c014a89d39826040516103259190610433565b60405180910390a250565b60016020528060005260406000206000915054906101000a900473ffffffffffffffffffffffffffffffffffffffff1681565b60008054906101000a900473ffffffffffffffffffffffffffffffffffffffff1681565b6114d28061047883390190565b600080fd5b600073ffffffffffffffffffffffffffffffffffffffff82169050919050565b60006103c482610399565b9050919050565b6103d4816103b9565b81146103df57600080fd5b50565b6000813590506103f1816103cb565b92915050565b60006020828403121561040d5761040c610394565b5b600061041b848285016103e2565b91505092915050565b61042d816103b9565b82525050565b60006020820190506104486000830184610424565b92915050565b60006040820190506104636000830185610424565b6104706020830184610424565b939250505056fe608060405234801561001057600080fd5b506040516114d23803806114d28339818101604052810190610032919061011d565b816000806101000a81548173ffffffffffffffffffffffffffffffffffffffff021916908373ffffffffffffffffffffffffffffffffffffffff16021790555080600160006101000a81548173ffffffffffffffffffffffffffffffffffffffff021916908373ffffffffffffffffffffffffffffffffffffffff160217905550505061015d565b600080fd5b600073ffffffffffffffffffffffffffffffffffffffff82169050919050565b60006100ea826100bf565b9050919050565b6100fa816100df565b811461010557600080fd5b50565b600081519050610117816100f1565b92915050565b60008060408385031215610134576101336100ba565b5b600061014285828601610108565b925050602061015385828601610108565b9150509250929050565b6113668061016c6000396000f3fe6080604052600436106100955760003560e01c8063670a6fd011610059578063670a6fd01461020e5780636ef71f73146102505780639bf42b3f1461027b578063ec0da8e6146102a6578063f613d0fc146102c2576100d5565b80633ffeda94146101105780634bde38c8146101505780635d8ff3991461017b5780636171980e146101a657806362087ef2146101e3576100d5565b366100d5576040517f08c379a00000000000000000000000000000000000000000000000000000000081526004016100cc90610db4565b60405180910390fd5b6040517f08c379a000000000000000000000000000000000000000000000000000000000815260040161010790610e20565b60405180910390fd5b34801561011c57600080fd5b5061013760048036038101906101329190610e7b565b6102eb565b6040516101479493929190610ef8565b60405180910390f35b34801561015c57600080fd5b5061016561033b565b6040516101729190610f3d565b60405180910390f35b34801561018757600080fd5b50610190610361565b60405161019d9190610f58565b60405180910390f35b3480156101b257600080fd5b506101cd60048036038101906101c89190610f9f565b61036b565b6040516101da9190610f58565b60405180910390f35b3480156101ef57600080fd5b506101f861041e565b6040516102059190610f3d565b60405180910390f35b34801561021a57600080fd5b5061023560048036038101906102309190610e7b565b610442565b60405161024796959493929190610fe7565b60405180910390f35b34801561025c57600080fd5b50610265610527565b6040516102729190610f58565b60405180910390f35b34801561028757600080fd5b506102906105d9565b60405161029d9190610f58565b60405180910390f35b6102c060048036038101906102bb9190611048565b6105df565b005b3480156102ce57600080fd5b506102e960048036038101906102e49190610e7b565b61091e565b005b60036020528060005260406000206000915090508060000160009054906101000a900473ffffffffffffffffffffffffffffffffffffffff16908060010154908060020154908060030154905084565b600160009054906101000a900473ffffffffffffffffffffffffffffffffffffffff1681565b6000600254905090565b600080600090505b600254811015610418578273ffffffffffffffffffffffffffffffffffffffff166003600083815260200190815260200160002060000160009054906101000a900473ffffffffffffffffffffffffffffffffffffffff1673ffffffffffffffffffffffffffffffffffffffff160361040b5760036000828152602001908152602001600020600101548261040891906110b7565b91505b8080600101915050610373565b50919050565b60008054906101000a900473ffffffffffffffffffffffffffffffffffffffff1681565b6000806000806000806000600360008981526020019081526020016000206040518060800160405290816000820160009054906101000a900473ffffffffffffffffffffffffffffffffffffffff1673ffffffffffffffffffffffffffffffffffffffff1673ffffffffffffffffffffffffffffffffffffffff1681526020016001820154815260200160028201548152602001600382015481525050905080600001518160200151826040015183606001518460600151856040015161050991906110b7565b60008660200151149650965096509650965096505091939550919395565b600080600090505b6002548110156105d557600073ffffffffffffffffffffffffffffffffffffffff166003600083815260200190815260200160002060000160009054906101000a900473ffffffffffffffffffffffffffffffffffffffff1673ffffffffffffffffffffffffffffffffffffffff16036105c8576003600082815260200190815260200160002060010154826105c591906110b7565b91505b808060010191505061052f565b5090565b60025481565b60008054906101000a900473ffffffffffffffffffffffffffffffffffffffff1673ffffffffffffffffffffffffffffffffffffffff163373ffffffffffffffffffffffffffffffffffffffff1614610664576040517f99f1a32500000000000000000000000000000000000000000000000000000000815260040160405180910390fd5b6000810361069e576040517f0acb57f100000000000000000000000000000000000000000000000000000000815260040160405180910390fd5b60008073ffffffffffffffffffffffffffffffffffffffff168373ffffffffffffffffffffffffffffffffffffffff1603610715576000340361070d576040517f16f98f8600000000000000000000000000000000000000000000000000000000815260040160405180910390fd5b34905061080f565b6000340361074f576040517f16f98f8600000000000000000000000000000000000000000000000000000000815260040160405180910390fd5b34905060008373ffffffffffffffffffffffffffffffffffffffff166323b872dd3330856040518463ffffffff1660e01b8152600401610791939291906110eb565b6020604051808303816000875af11580156107b0573d6000803e3d6000fd5b505050506040513d601f19601f820116820180604052508101906107d4919061114e565b90508061080d576040517f90b8ec1800000000000000000000000000000000000000000000000000000000815260040160405180910390fd5b505b60405180608001604052808473ffffffffffffffffffffffffffffffffffffffff1681526020018281526020014281526020018381525060036000600254815260200190815260200160002060008201518160000160006101000a81548173ffffffffffffffffffffffffffffffffffffffff021916908373ffffffffffffffffffffffffffffffffffffffff1602179055506020820151816001015560408201518160020155606082015181600301559050506002547f4589402ec9f11e4f62057b179a07d127370950d575c139d978c5c2ef323634fe8483856040516108f99392919061117b565b60405180910390a260026000815480929190610914906111b2565b9190505550505050565b60008054906101000a900473ffffffffffffffffffffffffffffffffffffffff1673ffffffffffffffffffffffffffffffffffffffff163373ffffffffffffffffffffffffffffffffffffffff16146109a3576040517f99f1a32500000000000000000000000000000000000000000000000000000000815260040160405180910390fd5b600060036000838152602001908152602001600020905060008160010154036109f8576040517ff63c274200000000000000000000000000000000000000000000000000000000815260040160405180910390fd5b600081600301548260020154610a0e91906110b7565b42109050600081610a20576000610a3e565b606460038460010154610a3391906111fa565b610a3d919061126b565b5b90506000818460010154610a52919061129c565b905060008460010181905550600073ffffffffffffffffffffffffffffffffffffffff168460000160009054906101000a900473ffffffffffffffffffffffffffffffffffffffff1673ffffffffffffffffffffffffffffffffffffffff1603610b8b57600160009054906101000a900473ffffffffffffffffffffffffffffffffffffffff1673ffffffffffffffffffffffffffffffffffffffff166108fc839081150290604051600060405180830381858888f19350505050158015610b1e573d6000803e3d6000fd5b5060008054906101000a900473ffffffffffffffffffffffffffffffffffffffff1673ffffffffffffffffffffffffffffffffffffffff166108fc829081150290604051600060405180830381858888f19350505050158015610b85573d6000803e3d6000fd5b50610d14565b8360000160009054906101000a900473ffffffffffffffffffffffffffffffffffffffff1673ffffffffffffffffffffffffffffffffffffffff1663a9059cbb600160009054906101000a900473ffffffffffffffffffffffffffffffffffffffff16846040518363ffffffff1660e01b8152600401610c0c9291906112d0565b6020604051808303816000875af1158015610c2b573d6000803e3d6000fd5b505050506040513d601f19601f82011682018060405250810190610c4f919061114e565b508360000160009054906101000a900473ffffffffffffffffffffffffffffffffffffffff1673ffffffffffffffffffffffffffffffffffffffff1663a9059cbb60008054906101000a900473ffffffffffffffffffffffffffffffffffffffff16836040518363ffffffff1660e01b8152600401610ccf9291906112d0565b6020604051808303816000875af1158015610cee573d6000803e3d6000fd5b505050506040513d601f19601f82011682018060405250810190610d12919061114e565b505b847f021219bfddccd282fade4e674c0264965dc86abd20e9e9e21b86d4e8820af732828486604051610d48939291906112f9565b60405180910390a25050505050565b600082825260208201905092915050565b7f55736520616464536176696e6720746f20707574204554480000000000000000600082015250565b6000610d9e601883610d57565b9150610da982610d68565b602082019050919050565b60006020820190508181036000830152610dcd81610d91565b9050919050565b7f57726f6e672063616c6c00000000000000000000000000000000000000000000600082015250565b6000610e0a600a83610d57565b9150610e1582610dd4565b602082019050919050565b60006020820190508181036000830152610e3981610dfd565b9050919050565b600080fd5b6000819050919050565b610e5881610e45565b8114610e6357600080fd5b50565b600081359050610e7581610e4f565b92915050565b600060208284031215610e9157610e90610e40565b5b6000610e9f84828501610e66565b91505092915050565b600073ffffffffffffffffffffffffffffffffffffffff82169050919050565b6000610ed382610ea8565b9050919050565b610ee381610ec8565b82525050565b610ef281610e45565b82525050565b6000608082019050610f0d6000830187610eda565b610f1a6020830186610ee9565b610f276040830185610ee9565b610f346060830184610ee9565b95945050505050565b6000602082019050610f526000830184610eda565b92915050565b6000602082019050610f6d6000830184610ee9565b92915050565b610f7c81610ec8565b8114610f8757600080fd5b50565b600081359050610f9981610f73565b92915050565b600060208284031215610fb557610fb4610e40565b5b6000610fc384828501610f8a565b91505092915050565b60008115159050919050565b610fe181610fcc565b82525050565b600060c082019050610ffc6000830189610eda565b6110096020830188610ee9565b6110166040830187610ee9565b6110236060830186610ee9565b6110306080830185610ee9565b61103d60a0830184610fd8565b979650505050505050565b6000806040838503121561105f5761105e610e40565b5b600061106d85828601610f8a565b925050602061107e85828601610e66565b9150509250929050565b7f4e487b7100000000000000000000000000000000000000000000000000000000600052601160045260246000fd5b60006110c282610e45565b91506110cd83610e45565b92508282019050808211156110e5576110e4611088565b5b92915050565b60006060820190506111006000830186610eda565b61110d6020830185610eda565b61111a6040830184610ee9565b949350505050565b61112b81610fcc565b811461113657600080fd5b50565b60008151905061114881611122565b92915050565b60006020828403121561116457611163610e40565b5b600061117284828501611139565b91505092915050565b60006060820190506111906000830186610eda565b61119d6020830185610ee9565b6111aa6040830184610ee9565b949350505050565b60006111bd82610e45565b91507fffffffffffffffffffffffffffffffffffffffffffffffffffffffffffffffff82036111ef576111ee611088565b5b600182019050919050565b600061120582610e45565b915061121083610e45565b925082820261121e81610e45565b9150828204841483151761123557611234611088565b5b5092915050565b7f4e487b7100000000000000000000000000000000000000000000000000000000600052601260045260246000fd5b600061127682610e45565b915061128183610e45565b9250826112915761129061123c565b5b828204905092915050565b60006112a782610e45565b91506112b283610e45565b92508282039050818111156112ca576112c9611088565b5b92915050565b60006040820190506112e56000830185610eda565b6112f26020830184610ee9565b9392505050565b600060608201905061130e6000830186610ee9565b61131b6020830185610ee9565b6113286040830184610fd8565b94935050505056fea264697066735822122079ac7d961e4cbada8a44e1463ac18a703c395e7219ca1bad543b8c19ed5ff15764736f6c634300081e0033a2646970667358221220dc19b802badc7293b21d239d8f728e818c85ae70a25010c163bd5aafddd93d7d64736f6c634300081e0033",
  "linkReferences": {},
  "deployedLinkReferences": {}
}