{
  "_format": "hh-sol-artifact-1",
  "contractName": "LudoGame",
  "sourceName": "contracts/LudoGame.sol",
  "abi": [
    {
      "inputs": [
        {
          "internalType": "address",
          "name": "tokenAddress",
          "type": "address"
        },
        {
          "internalType": "uint256",
          "name": "stakeAmount_",
          "type": "uint256"
        }
      ],
      "stateMutability": "nonpayable",
      "type": "constructor"
    },
    {
      "anonymous": false,
      "inputs": [
        {
          "indexed": true,
          "internalType": "address",
          "name": "account",
          "type": "address"
        },
        {
          "indexed": false,
          "internalType": "uint8",
          "name": "value",
          "type": "uint8"
        }
      ],
      "name": "DiceRolled",
      "type": "event"
    },
    {
      "anonymous": false,
      "inputs": [
        {
          "indexed": true,
          "internalType": "address",
          "name": "winner",
          "type": "address"
        },
        {
          "indexed": false,
          "internalType": "uint256",
          "name": "prize",
          "type": "uint256"
        }
      ],
      "name": "GameEnded",
      "type": "event"
    },
    {
      "anonymous": false,
      "inputs": [
        {
          "indexed": false,
          "internalType": "uint256",
          "name": "players",
          "type": "uint256"
        },
        {
          "indexed": false,
          "internalType": "uint256",
          "name": "totalStaked",
          "type": "uint256"
        }
      ],
      "name": "GameStarted",
      "type": "event"
    },
    {
      "anonymous": false,
      "inputs": [
        {
          "indexed": true,
          "internalType": "address",
          "name": "account",
          "type": "address"
        },
        {
          "indexed": false,
          "internalType": "uint8",
          "name": "rolled",
          "type": "uint8"
        },
        {
          "indexed": false,
          "internalType": "uint256",
          "name": "newScore",
          "type": "uint256"
        }
      ],
      "name": "PlayerMoved",
      "type": "event"
    },
    {
      "anonymous": false,
      "inputs": [
        {
          "indexed": true,
          "internalType": "address",
          "name": "account",
          "type": "address"
        },
        {
          "indexed": false,
          "internalType": "string",
          "name": "name",
          "type": "string"
        },
        {
          "indexed": false,
          "internalType": "enum LudoGame.Color",
          "name": "color",
          "type": "uint8"
        }
      ],
      "name": "PlayerRegistered",
      "type": "event"
    },
    {
      "inputs": [],
      "name": "MAX_PLAYERS",
      "outputs": [
        {
          "internalType": "uint8",
          "name": "",
          "type": "uint8"
        }
      ],
      "stateMutability": "view",
      "type": "function"
    },
    {
      "inputs": [
        {
          "internalType": "enum LudoGame.Color",
          "name": "",
          "type": "uint8"
        }
      ],
      "name": "colorOwner",
      "outputs": [
        {
          "internalType": "address",
          "name": "",
          "type": "address"
        }
      ],
      "stateMutability": "view",
      "type": "function"
    },
    {
      "inputs": [
        {
          "internalType": "uint256",
          "name": "seed",
          "type": "uint256"
        }
      ],
      "name": "computeDice",
      "outputs": [
        {
          "internalType": "uint8",
          "name": "",
          "type": "uint8"
        }
      ],
      "stateMutability": "pure",
      "type": "function"
    },
    {
      "inputs": [],
      "name": "endGameAndPayout",
      "outputs": [],
      "stateMutability": "nonpayable",
      "type": "function"
    },
    {
      "inputs": [],
      "name": "gameEnded",
      "outputs": [
        {
          "internalType": "bool",
          "name": "",
          "type": "bool"
        }
      ],
      "stateMutability": "view",
      "type": "function"
    },
    {
      "inputs": [],
      "name": "gameStarted",
      "outputs": [
        {
          "internalType": "bool",
          "name": "",
          "type": "bool"
        }
      ],
      "stateMutability": "view",
      "type": "function"
    },
    {
      "inputs": [
        {
          "internalType": "address",
          "name": "account",
          "type": "address"
        }
      ],
      "name": "getPlayer",
      "outputs": [
        {
          "internalType": "string",
          "name": "name",
          "type": "string"
        },
        {
          "internalType": "uint256",
          "name": "score",
          "type": "uint256"
        },
        {
          "internalType": "enum LudoGame.Color",
          "name": "color",
          "type": "uint8"
        },
        {
          "internalType": "bool",
          "name": "registered",
          "type": "bool"
        }
      ],
      "stateMutability": "view",
      "type": "function"
    },
    {
      "inputs": [],
      "name": "playTurn",
      "outputs": [
        {
          "internalType": "uint8",
          "name": "rolled",
          "type": "uint8"
        },
        {
          "internalType": "uint256",
          "name": "newScore",
          "type": "uint256"
        }
      ],
      "stateMutability": "nonpayable",
      "type": "function"
    },
    {
      "inputs": [],
      "name": "playersCount",
      "outputs": [
        {
          "internalType": "uint256",
          "name": "",
          "type": "uint256"
        }
      ],
      "stateMutability": "view",
      "type": "function"
    },
    {
      "inputs": [
        {
          "internalType": "string",
          "name": "name",
          "type": "string"
        },
        {
          "internalType": "enum LudoGame.Color",
          "name": "color",
          "type": "uint8"
        }
      ],
      "name": "registerPlayer",
      "outputs": [],
      "stateMutability": "nonpayable",
      "type": "function"
    },
    {
      "inputs": [],
      "name": "stakeAmount",
      "outputs": [
        {
          "internalType": "uint256",
          "name": "",
          "type": "uint256"
        }
      ],
      "stateMutability": "view",
      "type": "function"
    },
    {
      "inputs": [],
      "name": "startGame",
      "outputs": [],
      "stateMutability": "nonpayable",
      "type": "function"
    },
    {
      "inputs": [],
      "name": "token",
      "outputs": [
        {
          "internalType": "contract IERC20Minimal",
          "name": "",
          "type": "address"
        }
      ],
      "stateMutability": "view",
      "type": "function"
    },
    {
      "inputs": [],
      "name": "winner",
      "outputs": [
        {
          "internalType": "address",
          "name": "",
          "type": "address"
        }
      ],
      "stateMutability": "view",
      "type": "function"
    }
  ],
  "bytecode": "0x608060405234801561001057600080fd5b506040516126cb3803806126cb83398181016040528101906100329190610189565b600073ffffffffffffffffffffffffffffffffffffffff168273ffffffffffffffffffffffffffffffffffffffff16036100a1576040517f08c379a000000000000000000000000000000000000000000000000000000000815260040161009890610226565b60405180910390fd5b81600460006101000a81548173ffffffffffffffffffffffffffffffffffffffff021916908373ffffffffffffffffffffffffffffffffffffffff160217905550806005819055505050610246565b600080fd5b600073ffffffffffffffffffffffffffffffffffffffff82169050919050565b6000610120826100f5565b9050919050565b61013081610115565b811461013b57600080fd5b50565b60008151905061014d81610127565b92915050565b6000819050919050565b61016681610153565b811461017157600080fd5b50565b6000815190506101838161015d565b92915050565b600080604083850312156101a05761019f6100f0565b5b60006101ae8582860161013e565b92505060206101bf85828601610174565b9150509250929050565b600082825260208201905092915050565b7f546f6b656e207265717569726564000000000000000000000000000000000000600082015250565b6000610210600e836101c9565b915061021b826101da565b602082019050919050565b6000602082019050818103600083015261023f81610203565b9050919050565b612476806102556000396000f3fe608060405234801561001057600080fd5b50600436106100ea5760003560e01c80639781285c1161008c578063d52b175911610066578063d52b17591461022d578063d65ab5f21461025d578063dfbf53ae14610267578063fc0c546a14610285576100ea565b80639781285c146101e6578063a3f67d6d146101f0578063a76436661461020e576100ea565b80634411b3eb116100c85780634411b3eb146101595780635c12cd4b146101775780635e123ce4146101aa57806360c7dc47146101c8576100ea565b806302bc726d146100ef578063092786ad1461010b5780632f6fe3961461013b575b600080fd5b6101096004803603810190610104919061138b565b6102a3565b005b610125600480360381019061012091906113eb565b6106e5565b6040516101329190611459565b60405180910390f35b610143610718565b604051610150919061148f565b60405180910390f35b61016161072b565b60405161016e91906114c6565b60405180910390f35b610191600480360381019061018c919061150d565b610730565b6040516101a1949392919061165a565b60405180910390f35b6101b2610899565b6040516101bf919061148f565b60405180910390f35b6101d06108ac565b6040516101dd91906116a6565b60405180910390f35b6101ee6108b2565b005b6101f8610d13565b60405161020591906116a6565b60405180910390f35b610216610d20565b6040516102249291906116c1565b60405180910390f35b61024760048036038101906102429190611716565b610e77565b60405161025491906114c6565b60405180910390f35b610265610ec2565b005b61026f6111ee565b60405161027c9190611459565b60405180910390f35b61028d611214565b60405161029a91906117a2565b60405180910390f35b600083839050116102e9576040517f08c379a00000000000000000000000000000000000000000000000000000000081526004016102e090611809565b60405180910390fd5b6000803373ffffffffffffffffffffffffffffffffffffffff1673ffffffffffffffffffffffffffffffffffffffff16815260200190815260200160002060020160019054906101000a900460ff1615610378576040517f08c379a000000000000000000000000000000000000000000000000000000000815260040161036f90611875565b60405180910390fd5b600073ffffffffffffffffffffffffffffffffffffffff16600160008360038111156103a7576103a66115e3565b5b60038111156103b9576103b86115e3565b5b815260200190815260200160002060009054906101000a900473ffffffffffffffffffffffffffffffffffffffff1673ffffffffffffffffffffffffffffffffffffffff161461043e576040517f08c379a0000000000000000000000000000000000000000000000000000000008152600401610435906118e1565b60405180910390fd5b600460ff1660028054905010610489576040517f08c379a00000000000000000000000000000000000000000000000000000000081526004016104809061194d565b60405180910390fd5b604051806080016040528084848080601f016020809104026020016040519081016040528093929190818152602001838380828437600081840152601f19601f820116905080830192505050505050508152602001600081526020018260038111156104f8576104f76115e3565b5b8152602001600115158152506000803373ffffffffffffffffffffffffffffffffffffffff1673ffffffffffffffffffffffffffffffffffffffff16815260200190815260200160002060008201518160000190816105579190611b9e565b506020820151816001015560408201518160020160006101000a81548160ff0219169083600381111561058d5761058c6115e3565b5b021790555060608201518160020160016101000a81548160ff02191690831515021790555090505033600160008360038111156105cd576105cc6115e3565b5b60038111156105df576105de6115e3565b5b815260200190815260200160002060006101000a81548173ffffffffffffffffffffffffffffffffffffffff021916908373ffffffffffffffffffffffffffffffffffffffff1602179055506002339080600181540180825580915050600190039060005260206000200160009091909190916101000a81548173ffffffffffffffffffffffffffffffffffffffff021916908373ffffffffffffffffffffffffffffffffffffffff1602179055503373ffffffffffffffffffffffffffffffffffffffff167fa4e3e83915a129a7a35c973747aa80620677687eaf3adda20fa7e0644d01f9298484846040516106d893929190611cac565b60405180910390a2505050565b60016020528060005260406000206000915054906101000a900473ffffffffffffffffffffffffffffffffffffffff1681565b600660019054906101000a900460ff1681565b600481565b60606000806000806000808773ffffffffffffffffffffffffffffffffffffffff1673ffffffffffffffffffffffffffffffffffffffff168152602001908152602001600020604051806080016040529081600082018054610791906119cb565b80601f01602080910402602001604051908101604052809291908181526020018280546107bd906119cb565b801561080a5780601f106107df5761010080835404028352916020019161080a565b820191906000526020600020905b8154815290600101906020018083116107ed57829003601f168201915b50505050508152602001600182015481526020016002820160009054906101000a900460ff166003811115610842576108416115e3565b5b6003811115610854576108536115e3565b5b81526020016002820160019054906101000a900460ff161515151581525050905080600001518160200151826040015183606001519450945094509450509193509193565b600660009054906101000a900460ff1681565b60055481565b600660009054906101000a900460ff16610901576040517f08c379a00000000000000000000000000000000000000000000000000000000081526004016108f890611d2a565b60405180910390fd5b600660019054906101000a900460ff1615610951576040517f08c379a000000000000000000000000000000000000000000000000000000000815260040161094890611d96565b60405180910390fd5b600060028054905011610999576040517f08c379a000000000000000000000000000000000000000000000000000000000815260040161099090611e02565b60405180910390fd5b600060026000815481106109b0576109af611e22565b5b9060005260206000200160009054906101000a900473ffffffffffffffffffffffffffffffffffffffff16905060008060008373ffffffffffffffffffffffffffffffffffffffff1673ffffffffffffffffffffffffffffffffffffffff1681526020019081526020016000206001015490506000600190505b600280549050811015610ade57600060028281548110610a4d57610a4c611e22565b5b9060005260206000200160009054906101000a900473ffffffffffffffffffffffffffffffffffffffff16905060008060008373ffffffffffffffffffffffffffffffffffffffff1673ffffffffffffffffffffffffffffffffffffffff16815260200190815260200160002060010154905083811115610acf578194508093505b50508080600101915050610a2a565b506000600460009054906101000a900473ffffffffffffffffffffffffffffffffffffffff1673ffffffffffffffffffffffffffffffffffffffff166370a08231306040518263ffffffff1660e01b8152600401610b3c9190611459565b602060405180830381865afa158015610b59573d6000803e3d6000fd5b505050506040513d601f19601f82011682018060405250810190610b7d9190611e66565b90506001600660016101000a81548160ff02191690831515021790555082600660026101000a81548173ffffffffffffffffffffffffffffffffffffffff021916908373ffffffffffffffffffffffffffffffffffffffff1602179055506000600460009054906101000a900473ffffffffffffffffffffffffffffffffffffffff1673ffffffffffffffffffffffffffffffffffffffff1663a9059cbb85846040518363ffffffff1660e01b8152600401610c3a929190611e93565b6020604051808303816000875af1158015610c59573d6000803e3d6000fd5b505050506040513d601f19601f82011682018060405250810190610c7d9190611ee8565b905080610cbf576040517f08c379a0000000000000000000000000000000000000000000000000000000008152600401610cb690611f61565b60405180910390fd5b8373ffffffffffffffffffffffffffffffffffffffff167fd4ba6fec82d9b0e8ffe50b9fed9e4be3b25c984ce1e0e016405a5528726e8a2c83604051610d0591906116a6565b60405180910390a250505050565b6000600280549050905090565b6000806000803373ffffffffffffffffffffffffffffffffffffffff1673ffffffffffffffffffffffffffffffffffffffff16815260200190815260200160002060020160019054906101000a900460ff16610db1576040517f08c379a0000000000000000000000000000000000000000000000000000000008152600401610da890611fcd565b60405180910390fd5b610db961123a565b915060008060003373ffffffffffffffffffffffffffffffffffffffff1673ffffffffffffffffffffffffffffffffffffffff16815260200190815260200160002090508260ff16816001016000828254610e14919061201c565b92505081905550806001015491503373ffffffffffffffffffffffffffffffffffffffff167fa2b0aae25f339f90f1bd8b3489bdfb93b146ef6808f04c4e39235ca332007b238484604051610e6a9291906116c1565b60405180910390a2509091565b60006001600683604051602001610e8e9190612071565b6040516020818303038152906040528051906020012060001c610eb191906120bb565b610ebb919061201c565b9050919050565b600660009054906101000a900460ff1615610f12576040517f08c379a0000000000000000000000000000000000000000000000000000000008152600401610f0990612138565b60405180910390fd5b600160028054905011610f5a576040517f08c379a0000000000000000000000000000000000000000000000000000000008152600401610f51906121a4565b60405180910390fd5b600460ff166002805490501115610fa6576040517f08c379a0000000000000000000000000000000000000000000000000000000008152600401610f9d90612210565b60405180910390fd5b60006002805490509050600060055482610fc09190612230565b905060005b8281101561119557600060028281548110610fe357610fe2611e22565b5b9060005260206000200160009054906101000a900473ffffffffffffffffffffffffffffffffffffffff1690506000808273ffffffffffffffffffffffffffffffffffffffff1673ffffffffffffffffffffffffffffffffffffffff16815260200190815260200160002060020160019054906101000a900460ff1661109e576040517f08c379a0000000000000000000000000000000000000000000000000000000008152600401611095906122be565b60405180910390fd5b6000600460009054906101000a900473ffffffffffffffffffffffffffffffffffffffff1673ffffffffffffffffffffffffffffffffffffffff166323b872dd83306005546040518463ffffffff1660e01b8152600401611101939291906122de565b6020604051808303816000875af1158015611120573d6000803e3d6000fd5b505050506040513d601f19601f820116820180604052508101906111449190611ee8565b905080611186576040517f08c379a000000000000000000000000000000000000000000000000000000000815260040161117d90612361565b60405180910390fd5b50508080600101915050610fc5565b506001600660006101000a81548160ff0219169083151502179055507fa2dfaa3573b86004ec9d4d4abe5068d942579c59da4da8cd0d9e45e71a393bc182826040516111e2929190612381565b60405180910390a15050565b600660029054906101000a900473ffffffffffffffffffffffffffffffffffffffff1681565b600460009054906101000a900473ffffffffffffffffffffffffffffffffffffffff1681565b6000600360008154809291906001019190505550600044423360035460405160200161126994939291906123f2565b6040516020818303038152906040528051906020012060001c90506000600160068361129591906120bb565b61129f919061201c565b90503373ffffffffffffffffffffffffffffffffffffffff167fc58abb24bb142a4e0cad0493a9c010849a79d42f31893b1433c3f8df56010979826040516112e791906114c6565b60405180910390a2809250505090565b600080fd5b600080fd5b600080fd5b600080fd5b600080fd5b60008083601f84011261132657611325611301565b5b8235905067ffffffffffffffff81111561134357611342611306565b5b60208301915083600182028301111561135f5761135e61130b565b5b9250929050565b6004811061137357600080fd5b50565b60008135905061138581611366565b92915050565b6000806000604084860312156113a4576113a36112f7565b5b600084013567ffffffffffffffff8111156113c2576113c16112fc565b5b6113ce86828701611310565b935093505060206113e186828701611376565b9150509250925092565b600060208284031215611401576114006112f7565b5b600061140f84828501611376565b91505092915050565b600073ffffffffffffffffffffffffffffffffffffffff82169050919050565b600061144382611418565b9050919050565b61145381611438565b82525050565b600060208201905061146e600083018461144a565b92915050565b60008115159050919050565b61148981611474565b82525050565b60006020820190506114a46000830184611480565b92915050565b600060ff82169050919050565b6114c0816114aa565b82525050565b60006020820190506114db60008301846114b7565b92915050565b6114ea81611438565b81146114f557600080fd5b50565b600081359050611507816114e1565b92915050565b600060208284031215611523576115226112f7565b5b6000611531848285016114f8565b91505092915050565b600081519050919050565b600082825260208201905092915050565b60005b83811015611574578082015181840152602081019050611559565b60008484015250505050565b6000601f19601f8301169050919050565b600061159c8261153a565b6115a68185611545565b93506115b6818560208601611556565b6115bf81611580565b840191505092915050565b6000819050919050565b6115dd816115ca565b82525050565b7f4e487b7100000000000000000000000000000000000000000000000000000000600052602160045260246000fd5b60048110611623576116226115e3565b5b50565b600081905061163482611612565b919050565b600061164482611626565b9050919050565b61165481611639565b82525050565b600060808201905081810360008301526116748187611591565b905061168360208301866115d4565b611690604083018561164b565b61169d6060830184611480565b95945050505050565b60006020820190506116bb60008301846115d4565b92915050565b60006040820190506116d660008301856114b7565b6116e360208301846115d4565b9392505050565b6116f3816115ca565b81146116fe57600080fd5b50565b600081359050611710816116ea565b92915050565b60006020828403121561172c5761172b6112f7565b5b600061173a84828501611701565b91505092915050565b6000819050919050565b600061176861176361175e84611418565b611743565b611418565b9050919050565b600061177a8261174d565b9050919050565b600061178c8261176f565b9050919050565b61179c81611781565b82525050565b60006020820190506117b76000830184611793565b92915050565b7f4e616d6520726571756972656400000000000000000000000000000000000000600082015250565b60006117f3600d83611545565b91506117fe826117bd565b602082019050919050565b60006020820190508181036000830152611822816117e6565b9050919050565b7f416c726561647920726567697374657265640000000000000000000000000000600082015250565b600061185f601283611545565b915061186a82611829565b602082019050919050565b6000602082019050818103600083015261188e81611852565b9050919050565b7f436f6c6f722074616b656e000000000000000000000000000000000000000000600082015250565b60006118cb600b83611545565b91506118d682611895565b602082019050919050565b600060208201905081810360008301526118fa816118be565b9050919050565b7f4d617820706c6179657273207265616368656400000000000000000000000000600082015250565b6000611937601383611545565b915061194282611901565b602082019050919050565b600060208201905081810360008301526119668161192a565b9050919050565b7f4e487b7100000000000000000000000000000000000000000000000000000000600052604160045260246000fd5b7f4e487b7100000000000000000000000000000000000000000000000000000000600052602260045260246000fd5b600060028204905060018216806119e357607f821691505b6020821081036119f6576119f561199c565b5b50919050565b60008190508160005260206000209050919050565b60006020601f8301049050919050565b600082821b905092915050565b600060088302611a5e7fffffffffffffffffffffffffffffffffffffffffffffffffffffffffffffffff82611a21565b611a688683611a21565b95508019841693508086168417925050509392505050565b6000611a9b611a96611a91846115ca565b611743565b6115ca565b9050919050565b6000819050919050565b611ab583611a80565b611ac9611ac182611aa2565b848454611a2e565b825550505050565b600090565b611ade611ad1565b611ae9818484611aac565b505050565b5b81811015611b0d57611b02600082611ad6565b600181019050611aef565b5050565b601f821115611b5257611b23816119fc565b611b2c84611a11565b81016020851015611b3b578190505b611b4f611b4785611a11565b830182611aee565b50505b505050565b600082821c905092915050565b6000611b7560001984600802611b57565b1980831691505092915050565b6000611b8e8383611b64565b9150826002028217905092915050565b611ba78261153a565b67ffffffffffffffff811115611bc057611bbf61196d565b5b611bca82546119cb565b611bd5828285611b11565b600060209050601f831160018114611c085760008415611bf6578287015190505b611c008582611b82565b865550611c68565b601f198416611c16866119fc565b60005b82811015611c3e57848901518255600182019150602085019450602081019050611c19565b86831015611c5b5784890151611c57601f891682611b64565b8355505b6001600288020188555050505b505050505050565b82818337600083830152505050565b6000611c8b8385611545565b9350611c98838584611c70565b611ca183611580565b840190509392505050565b60006040820190508181036000830152611cc7818587611c7f565b9050611cd6602083018461164b565b949350505050565b7f47616d65206e6f74207374617274656400000000000000000000000000000000600082015250565b6000611d14601083611545565b9150611d1f82611cde565b602082019050919050565b60006020820190508181036000830152611d4381611d07565b9050919050565b7f47616d6520616c726561647920656e6465640000000000000000000000000000600082015250565b6000611d80601283611545565b9150611d8b82611d4a565b602082019050919050565b60006020820190508181036000830152611daf81611d73565b9050919050565b7f4e6f20706c617965727300000000000000000000000000000000000000000000600082015250565b6000611dec600a83611545565b9150611df782611db6565b602082019050919050565b60006020820190508181036000830152611e1b81611ddf565b9050919050565b7f4e487b7100000000000000000000000000000000000000000000000000000000600052603260045260246000fd5b600081519050611e60816116ea565b92915050565b600060208284031215611e7c57611e7b6112f7565b5b6000611e8a84828501611e51565b91505092915050565b6000604082019050611ea8600083018561144a565b611eb560208301846115d4565b9392505050565b611ec581611474565b8114611ed057600080fd5b50565b600081519050611ee281611ebc565b92915050565b600060208284031215611efe57611efd6112f7565b5b6000611f0c84828501611ed3565b91505092915050565b7f5072697a65207472616e73666572206661696c65640000000000000000000000600082015250565b6000611f4b601583611545565b9150611f5682611f15565b602082019050919050565b60006020820190508181036000830152611f7a81611f3e565b9050919050565b7f4e6f742072656769737465726564000000000000000000000000000000000000600082015250565b6000611fb7600e83611545565b9150611fc282611f81565b602082019050919050565b60006020820190508181036000830152611fe681611faa565b9050919050565b7f4e487b7100000000000000000000000000000000000000000000000000000000600052601160045260246000fd5b6000612027826115ca565b9150612032836115ca565b925082820190508082111561204a57612049611fed565b5b92915050565b6000819050919050565b61206b612066826115ca565b612050565b82525050565b600061207d828461205a565b60208201915081905092915050565b7f4e487b7100000000000000000000000000000000000000000000000000000000600052601260045260246000fd5b60006120c6826115ca565b91506120d1836115ca565b9250826120e1576120e061208c565b5b828206905092915050565b7f47616d6520616c72656164792073746172746564000000000000000000000000600082015250565b6000612122601483611545565b915061212d826120ec565b602082019050919050565b6000602082019050818103600083015261215181612115565b9050919050565b7f4e656564206174206c65617374203220706c6179657273000000000000000000600082015250565b600061218e601783611545565b915061219982612158565b602082019050919050565b600060208201905081810360008301526121bd81612181565b9050919050565b7f546f6f206d616e7920706c617965727300000000000000000000000000000000600082015250565b60006121fa601083611545565b9150612205826121c4565b602082019050919050565b60006020820190508181036000830152612229816121ed565b9050919050565b600061223b826115ca565b9150612246836115ca565b9250828202612254816115ca565b9150828204841483151761226b5761226a611fed565b5b5092915050565b7f556e7265676973746572656420696e206c697374000000000000000000000000600082015250565b60006122a8601483611545565b91506122b382612272565b602082019050919050565b600060208201905081810360008301526122d78161229b565b9050919050565b60006060820190506122f3600083018661144a565b612300602083018561144a565b61230d60408301846115d4565b949350505050565b7f5374616b65207472616e73666572206661696c65640000000000000000000000600082015250565b600061234b601583611545565b915061235682612315565b602082019050919050565b6000602082019050818103600083015261237a8161233e565b9050919050565b600060408201905061239660008301856115d4565b6123a360208301846115d4565b9392505050565b60008160601b9050919050565b60006123c2826123aa565b9050919050565b60006123d4826123b7565b9050919050565b6123ec6123e782611438565b6123c9565b82525050565b60006123fe828761205a565b60208201915061240e828661205a565b60208201915061241e82856123db565b60148201915061242e828461205a565b6020820191508190509594505050505056fea2646970667358221220c54faa0a38f092b9a426cf0b139e7c23c8d6836b9ef6f105c100f94e35b8bd8364736f6c634300081e0033",
  "linkReferences": {},
  "deployedLinkReferences": {}
}